{
  "_format": "hh-sol-artifact-1",
  "contractName": "VRFCoordinatorV2_5Mock",
  "sourceName": "@chainlink/contracts/src/v0.8/vrf/mocks/VRFCoordinatorV2_5Mock.sol",
  "abi": [
    {
      "inputs": [
        {
          "internalType": "uint96",
          "name": "_baseFee",
          "type": "uint96"
        },
        {
          "internalType": "uint96",
          "name": "_gasPrice",
          "type": "uint96"
        },
        {
          "internalType": "int256",
          "name": "_weiPerUnitLink",
          "type": "int256"
        }
      ],
      "stateMutability": "nonpayable",
      "type": "constructor"
    },
    {
      "inputs": [
        {
          "internalType": "uint256",
          "name": "internalBalance",
          "type": "uint256"
        },
        {
          "internalType": "uint256",
          "name": "externalBalance",
          "type": "uint256"
        }
      ],
      "name": "BalanceInvariantViolated",
      "type": "error"
    },
    {
      "inputs": [],
      "name": "FailedToSendNative",
      "type": "error"
    },
    {
      "inputs": [],
      "name": "FailedToTransferLink",
      "type": "error"
    },
    {
      "inputs": [],
      "name": "IndexOutOfRange",
      "type": "error"
    },
    {
      "inputs": [],
      "name": "InsufficientBalance",
      "type": "error"
    },
    {
      "inputs": [],
      "name": "InvalidCalldata",
      "type": "error"
    },
    {
      "inputs": [
        {
          "internalType": "uint256",
          "name": "subId",
          "type": "uint256"
        },
        {
          "internalType": "address",
          "name": "consumer",
          "type": "address"
        }
      ],
      "name": "InvalidConsumer",
      "type": "error"
    },
    {
      "inputs": [],
      "name": "InvalidExtraArgsTag",
      "type": "error"
    },
    {
      "inputs": [],
      "name": "InvalidRandomWords",
      "type": "error"
    },
    {
      "inputs": [],
      "name": "InvalidRequest",
      "type": "error"
    },
    {
      "inputs": [],
      "name": "InvalidSubscription",
      "type": "error"
    },
    {
      "inputs": [],
      "name": "LinkAlreadySet",
      "type": "error"
    },
    {
      "inputs": [],
      "name": "LinkNotSet",
      "type": "error"
    },
    {
      "inputs": [
        {
          "internalType": "address",
          "name": "proposedOwner",
          "type": "address"
        }
      ],
      "name": "MustBeRequestedOwner",
      "type": "error"
    },
    {
      "inputs": [
        {
          "internalType": "address",
          "name": "owner",
          "type": "address"
        }
      ],
      "name": "MustBeSubOwner",
      "type": "error"
    },
    {
      "inputs": [],
      "name": "NotImplemented",
      "type": "error"
    },
    {
      "inputs": [],
      "name": "OnlyCallableFromLink",
      "type": "error"
    },
    {
      "inputs": [],
      "name": "PendingRequestExists",
      "type": "error"
    },
    {
      "inputs": [],
      "name": "Reentrant",
      "type": "error"
    },
    {
      "inputs": [],
      "name": "TooManyConsumers",
      "type": "error"
    },
    {
      "anonymous": false,
      "inputs": [],
      "name": "ConfigSet",
      "type": "event"
    },
    {
      "anonymous": false,
      "inputs": [
        {
          "indexed": false,
          "internalType": "address",
          "name": "to",
          "type": "address"
        },
        {
          "indexed": false,
          "internalType": "uint256",
          "name": "amount",
          "type": "uint256"
        }
      ],
      "name": "FundsRecovered",
      "type": "event"
    },
    {
      "anonymous": false,
      "inputs": [
        {
          "indexed": false,
          "internalType": "address",
          "name": "to",
          "type": "address"
        },
        {
          "indexed": false,
          "internalType": "uint256",
          "name": "amount",
          "type": "uint256"
        }
      ],
      "name": "NativeFundsRecovered",
      "type": "event"
    },
    {
      "anonymous": false,
      "inputs": [
        {
          "indexed": true,
          "internalType": "address",
          "name": "from",
          "type": "address"
        },
        {
          "indexed": true,
          "internalType": "address",
          "name": "to",
          "type": "address"
        }
      ],
      "name": "OwnershipTransferRequested",
      "type": "event"
    },
    {
      "anonymous": false,
      "inputs": [
        {
          "indexed": true,
          "internalType": "address",
          "name": "from",
          "type": "address"
        },
        {
          "indexed": true,
          "internalType": "address",
          "name": "to",
          "type": "address"
        }
      ],
      "name": "OwnershipTransferred",
      "type": "event"
    },
    {
      "anonymous": false,
      "inputs": [
        {
          "indexed": true,
          "internalType": "uint256",
          "name": "requestId",
          "type": "uint256"
        },
        {
          "indexed": false,
          "internalType": "uint256",
          "name": "outputSeed",
          "type": "uint256"
        },
        {
          "indexed": true,
          "internalType": "uint256",
          "name": "subId",
          "type": "uint256"
        },
        {
          "indexed": false,
          "internalType": "uint96",
          "name": "payment",
          "type": "uint96"
        },
        {
          "indexed": false,
          "internalType": "bool",
          "name": "nativePayment",
          "type": "bool"
        },
        {
          "indexed": false,
          "internalType": "bool",
          "name": "success",
          "type": "bool"
        },
        {
          "indexed": false,
          "internalType": "bool",
          "name": "onlyPremium",
          "type": "bool"
        }
      ],
      "name": "RandomWordsFulfilled",
      "type": "event"
    },
    {
      "anonymous": false,
      "inputs": [
        {
          "indexed": true,
          "internalType": "bytes32",
          "name": "keyHash",
          "type": "bytes32"
        },
        {
          "indexed": false,
          "internalType": "uint256",
          "name": "requestId",
          "type": "uint256"
        },
        {
          "indexed": false,
          "internalType": "uint256",
          "name": "preSeed",
          "type": "uint256"
        },
        {
          "indexed": true,
          "internalType": "uint256",
          "name": "subId",
          "type": "uint256"
        },
        {
          "indexed": false,
          "internalType": "uint16",
          "name": "minimumRequestConfirmations",
          "type": "uint16"
        },
        {
          "indexed": false,
          "internalType": "uint32",
          "name": "callbackGasLimit",
          "type": "uint32"
        },
        {
          "indexed": false,
          "internalType": "uint32",
          "name": "numWords",
          "type": "uint32"
        },
        {
          "indexed": false,
          "internalType": "bytes",
          "name": "extraArgs",
          "type": "bytes"
        },
        {
          "indexed": true,
          "internalType": "address",
          "name": "sender",
          "type": "address"
        }
      ],
      "name": "RandomWordsRequested",
      "type": "event"
    },
    {
      "anonymous": false,
      "inputs": [
        {
          "indexed": true,
          "internalType": "uint256",
          "name": "subId",
          "type": "uint256"
        },
        {
          "indexed": false,
          "internalType": "address",
          "name": "to",
          "type": "address"
        },
        {
          "indexed": false,
          "internalType": "uint256",
          "name": "amountLink",
          "type": "uint256"
        },
        {
          "indexed": false,
          "internalType": "uint256",
          "name": "amountNative",
          "type": "uint256"
        }
      ],
      "name": "SubscriptionCanceled",
      "type": "event"
    },
    {
      "anonymous": false,
      "inputs": [
        {
          "indexed": true,
          "internalType": "uint256",
          "name": "subId",
          "type": "uint256"
        },
        {
          "indexed": false,
          "internalType": "address",
          "name": "consumer",
          "type": "address"
        }
      ],
      "name": "SubscriptionConsumerAdded",
      "type": "event"
    },
    {
      "anonymous": false,
      "inputs": [
        {
          "indexed": true,
          "internalType": "uint256",
          "name": "subId",
          "type": "uint256"
        },
        {
          "indexed": false,
          "internalType": "address",
          "name": "consumer",
          "type": "address"
        }
      ],
      "name": "SubscriptionConsumerRemoved",
      "type": "event"
    },
    {
      "anonymous": false,
      "inputs": [
        {
          "indexed": true,
          "internalType": "uint256",
          "name": "subId",
          "type": "uint256"
        },
        {
          "indexed": false,
          "internalType": "address",
          "name": "owner",
          "type": "address"
        }
      ],
      "name": "SubscriptionCreated",
      "type": "event"
    },
    {
      "anonymous": false,
      "inputs": [
        {
          "indexed": true,
          "internalType": "uint256",
          "name": "subId",
          "type": "uint256"
        },
        {
          "indexed": false,
          "internalType": "uint256",
          "name": "oldBalance",
          "type": "uint256"
        },
        {
          "indexed": false,
          "internalType": "uint256",
          "name": "newBalance",
          "type": "uint256"
        }
      ],
      "name": "SubscriptionFunded",
      "type": "event"
    },
    {
      "anonymous": false,
      "inputs": [
        {
          "indexed": true,
          "internalType": "uint256",
          "name": "subId",
          "type": "uint256"
        },
        {
          "indexed": false,
          "internalType": "uint256",
          "name": "oldNativeBalance",
          "type": "uint256"
        },
        {
          "indexed": false,
          "internalType": "uint256",
          "name": "newNativeBalance",
          "type": "uint256"
        }
      ],
      "name": "SubscriptionFundedWithNative",
      "type": "event"
    },
    {
      "anonymous": false,
      "inputs": [
        {
          "indexed": true,
          "internalType": "uint256",
          "name": "subId",
          "type": "uint256"
        },
        {
          "indexed": false,
          "internalType": "address",
          "name": "from",
          "type": "address"
        },
        {
          "indexed": false,
          "internalType": "address",
          "name": "to",
          "type": "address"
        }
      ],
      "name": "SubscriptionOwnerTransferRequested",
      "type": "event"
    },
    {
      "anonymous": false,
      "inputs": [
        {
          "indexed": true,
          "internalType": "uint256",
          "name": "subId",
          "type": "uint256"
        },
        {
          "indexed": false,
          "internalType": "address",
          "name": "from",
          "type": "address"
        },
        {
          "indexed": false,
          "internalType": "address",
          "name": "to",
          "type": "address"
        }
      ],
      "name": "SubscriptionOwnerTransferred",
      "type": "event"
    },
    {
      "inputs": [],
      "name": "LINK",
      "outputs": [
        {
          "internalType": "contract LinkTokenInterface",
          "name": "",
          "type": "address"
        }
      ],
      "stateMutability": "view",
      "type": "function"
    },
    {
      "inputs": [],
      "name": "LINK_NATIVE_FEED",
      "outputs": [
        {
          "internalType": "contract AggregatorV3Interface",
          "name": "",
          "type": "address"
        }
      ],
      "stateMutability": "view",
      "type": "function"
    },
    {
      "inputs": [],
      "name": "MAX_CONSUMERS",
      "outputs": [
        {
          "internalType": "uint16",
          "name": "",
          "type": "uint16"
        }
      ],
      "stateMutability": "view",
      "type": "function"
    },
    {
      "inputs": [],
      "name": "acceptOwnership",
      "outputs": [],
      "stateMutability": "nonpayable",
      "type": "function"
    },
    {
      "inputs": [
        {
          "internalType": "uint256",
          "name": "subId",
          "type": "uint256"
        }
      ],
      "name": "acceptSubscriptionOwnerTransfer",
      "outputs": [],
      "stateMutability": "nonpayable",
      "type": "function"
    },
    {
      "inputs": [
        {
          "internalType": "uint256",
          "name": "subId",
          "type": "uint256"
        },
        {
          "internalType": "address",
          "name": "consumer",
          "type": "address"
        }
      ],
      "name": "addConsumer",
      "outputs": [],
      "stateMutability": "nonpayable",
      "type": "function"
    },
    {
      "inputs": [
        {
          "internalType": "uint256",
          "name": "_subId",
          "type": "uint256"
        },
        {
          "internalType": "address",
          "name": "_to",
          "type": "address"
        }
      ],
      "name": "cancelSubscription",
      "outputs": [],
      "stateMutability": "nonpayable",
      "type": "function"
    },
    {
      "inputs": [
        {
          "internalType": "uint256",
          "name": "_subId",
          "type": "uint256"
        },
        {
          "internalType": "address",
          "name": "_consumer",
          "type": "address"
        }
      ],
      "name": "consumerIsAdded",
      "outputs": [
        {
          "internalType": "bool",
          "name": "",
          "type": "bool"
        }
      ],
      "stateMutability": "view",
      "type": "function"
    },
    {
      "inputs": [],
      "name": "createSubscription",
      "outputs": [
        {
          "internalType": "uint256",
          "name": "subId",
          "type": "uint256"
        }
      ],
      "stateMutability": "nonpayable",
      "type": "function"
    },
    {
      "inputs": [
        {
          "internalType": "uint256",
          "name": "_requestId",
          "type": "uint256"
        },
        {
          "internalType": "address",
          "name": "_consumer",
          "type": "address"
        }
      ],
      "name": "fulfillRandomWords",
      "outputs": [],
      "stateMutability": "nonpayable",
      "type": "function"
    },
    {
      "inputs": [
        {
          "internalType": "uint256",
          "name": "_requestId",
          "type": "uint256"
        },
        {
          "internalType": "address",
          "name": "_consumer",
          "type": "address"
        },
        {
          "internalType": "uint256[]",
          "name": "_words",
          "type": "uint256[]"
        }
      ],
      "name": "fulfillRandomWordsWithOverride",
      "outputs": [],
      "stateMutability": "nonpayable",
      "type": "function"
    },
    {
      "inputs": [
        {
          "internalType": "uint256",
          "name": "_subId",
          "type": "uint256"
        },
        {
          "internalType": "uint256",
          "name": "_amount",
          "type": "uint256"
        }
      ],
      "name": "fundSubscription",
      "outputs": [],
      "stateMutability": "nonpayable",
      "type": "function"
    },
    {
      "inputs": [
        {
          "internalType": "uint256",
          "name": "subId",
          "type": "uint256"
        }
      ],
      "name": "fundSubscriptionWithNative",
      "outputs": [],
      "stateMutability": "payable",
      "type": "function"
    },
    {
      "inputs": [
        {
          "internalType": "uint256",
          "name": "startIndex",
          "type": "uint256"
        },
        {
          "internalType": "uint256",
          "name": "maxCount",
          "type": "uint256"
        }
      ],
      "name": "getActiveSubscriptionIds",
      "outputs": [
        {
          "internalType": "uint256[]",
          "name": "ids",
          "type": "uint256[]"
        }
      ],
      "stateMutability": "view",
      "type": "function"
    },
    {
      "inputs": [
        {
          "internalType": "uint256",
          "name": "subId",
          "type": "uint256"
        }
      ],
      "name": "getSubscription",
      "outputs": [
        {
          "internalType": "uint96",
          "name": "balance",
          "type": "uint96"
        },
        {
          "internalType": "uint96",
          "name": "nativeBalance",
          "type": "uint96"
        },
        {
          "internalType": "uint64",
          "name": "reqCount",
          "type": "uint64"
        },
        {
          "internalType": "address",
          "name": "subOwner",
          "type": "address"
        },
        {
          "internalType": "address[]",
          "name": "consumers",
          "type": "address[]"
        }
      ],
      "stateMutability": "view",
      "type": "function"
    },
    {
      "inputs": [],
      "name": "i_base_fee",
      "outputs": [
        {
          "internalType": "uint96",
          "name": "",
          "type": "uint96"
        }
      ],
      "stateMutability": "view",
      "type": "function"
    },
    {
      "inputs": [],
      "name": "i_gas_price",
      "outputs": [
        {
          "internalType": "uint96",
          "name": "",
          "type": "uint96"
        }
      ],
      "stateMutability": "view",
      "type": "function"
    },
    {
      "inputs": [],
      "name": "i_wei_per_unit_link",
      "outputs": [
        {
          "internalType": "int256",
          "name": "",
          "type": "int256"
        }
      ],
      "stateMutability": "view",
      "type": "function"
    },
    {
      "inputs": [
        {
          "internalType": "address",
          "name": "",
          "type": "address"
        },
        {
          "internalType": "uint256",
          "name": "amount",
          "type": "uint256"
        },
        {
          "internalType": "bytes",
          "name": "data",
          "type": "bytes"
        }
      ],
      "name": "onTokenTransfer",
      "outputs": [],
      "stateMutability": "nonpayable",
      "type": "function"
    },
    {
      "inputs": [],
      "name": "owner",
      "outputs": [
        {
          "internalType": "address",
          "name": "",
          "type": "address"
        }
      ],
      "stateMutability": "view",
      "type": "function"
    },
    {
      "inputs": [
        {
          "internalType": "uint256",
          "name": "subId",
          "type": "uint256"
        }
      ],
      "name": "ownerCancelSubscription",
      "outputs": [],
      "stateMutability": "nonpayable",
      "type": "function"
    },
    {
      "inputs": [
        {
          "internalType": "uint256",
          "name": "",
          "type": "uint256"
        }
      ],
      "name": "pendingRequestExists",
      "outputs": [
        {
          "internalType": "bool",
          "name": "",
          "type": "bool"
        }
      ],
      "stateMutability": "pure",
      "type": "function"
    },
    {
      "inputs": [
        {
          "internalType": "address",
          "name": "to",
          "type": "address"
        }
      ],
      "name": "recoverFunds",
      "outputs": [],
      "stateMutability": "nonpayable",
      "type": "function"
    },
    {
      "inputs": [
        {
          "internalType": "address payable",
          "name": "to",
          "type": "address"
        }
      ],
      "name": "recoverNativeFunds",
      "outputs": [],
      "stateMutability": "nonpayable",
      "type": "function"
    },
    {
      "inputs": [
        {
          "internalType": "uint256",
          "name": "_subId",
          "type": "uint256"
        },
        {
          "internalType": "address",
          "name": "_consumer",
          "type": "address"
        }
      ],
      "name": "removeConsumer",
      "outputs": [],
      "stateMutability": "nonpayable",
      "type": "function"
    },
    {
      "inputs": [
        {
          "components": [
            {
              "internalType": "bytes32",
              "name": "keyHash",
              "type": "bytes32"
            },
            {
              "internalType": "uint256",
              "name": "subId",
              "type": "uint256"
            },
            {
              "internalType": "uint16",
              "name": "requestConfirmations",
              "type": "uint16"
            },
            {
              "internalType": "uint32",
              "name": "callbackGasLimit",
              "type": "uint32"
            },
            {
              "internalType": "uint32",
              "name": "numWords",
              "type": "uint32"
            },
            {
              "internalType": "bytes",
              "name": "extraArgs",
              "type": "bytes"
            }
          ],
          "internalType": "struct VRFV2PlusClient.RandomWordsRequest",
          "name": "_req",
          "type": "tuple"
        }
      ],
      "name": "requestRandomWords",
      "outputs": [
        {
          "internalType": "uint256",
          "name": "",
          "type": "uint256"
        }
      ],
      "stateMutability": "nonpayable",
      "type": "function"
    },
    {
      "inputs": [
        {
          "internalType": "uint256",
          "name": "subId",
          "type": "uint256"
        },
        {
          "internalType": "address",
          "name": "newOwner",
          "type": "address"
        }
      ],
      "name": "requestSubscriptionOwnerTransfer",
      "outputs": [],
      "stateMutability": "nonpayable",
      "type": "function"
    },
    {
      "inputs": [],
      "name": "s_config",
      "outputs": [
        {
          "internalType": "uint16",
          "name": "minimumRequestConfirmations",
          "type": "uint16"
        },
        {
          "internalType": "uint32",
          "name": "maxGasLimit",
          "type": "uint32"
        },
        {
          "internalType": "bool",
          "name": "reentrancyLock",
          "type": "bool"
        },
        {
          "internalType": "uint32",
          "name": "stalenessSeconds",
          "type": "uint32"
        },
        {
          "internalType": "uint32",
          "name": "gasAfterPaymentCalculation",
          "type": "uint32"
        },
        {
          "internalType": "uint32",
          "name": "fulfillmentFlatFeeNativePPM",
          "type": "uint32"
        },
        {
          "internalType": "uint32",
          "name": "fulfillmentFlatFeeLinkDiscountPPM",
          "type": "uint32"
        },
        {
          "internalType": "uint8",
          "name": "nativePremiumPercentage",
          "type": "uint8"
        },
        {
          "internalType": "uint8",
          "name": "linkPremiumPercentage",
          "type": "uint8"
        }
      ],
      "stateMutability": "view",
      "type": "function"
    },
    {
      "inputs": [],
      "name": "s_currentSubNonce",
      "outputs": [
        {
          "internalType": "uint64",
          "name": "",
          "type": "uint64"
        }
      ],
      "stateMutability": "view",
      "type": "function"
    },
    {
      "inputs": [],
      "name": "s_totalBalance",
      "outputs": [
        {
          "internalType": "uint96",
          "name": "",
          "type": "uint96"
        }
      ],
      "stateMutability": "view",
      "type": "function"
    },
    {
      "inputs": [],
      "name": "s_totalNativeBalance",
      "outputs": [
        {
          "internalType": "uint96",
          "name": "",
          "type": "uint96"
        }
      ],
      "stateMutability": "view",
      "type": "function"
    },
    {
      "inputs": [],
      "name": "setConfig",
      "outputs": [],
      "stateMutability": "nonpayable",
      "type": "function"
    },
    {
      "inputs": [
        {
          "internalType": "address",
          "name": "link",
          "type": "address"
        },
        {
          "internalType": "address",
          "name": "linkNativeFeed",
          "type": "address"
        }
      ],
      "name": "setLINKAndLINKNativeFeed",
      "outputs": [],
      "stateMutability": "nonpayable",
      "type": "function"
    },
    {
      "inputs": [
        {
          "internalType": "address",
          "name": "to",
          "type": "address"
        }
      ],
      "name": "transferOwnership",
      "outputs": [],
      "stateMutability": "nonpayable",
      "type": "function"
    },
    {
      "inputs": [
        {
          "internalType": "address",
          "name": "recipient",
          "type": "address"
        }
      ],
      "name": "withdraw",
      "outputs": [],
      "stateMutability": "nonpayable",
      "type": "function"
    },
    {
      "inputs": [
        {
          "internalType": "address payable",
          "name": "recipient",
          "type": "address"
        }
      ],
      "name": "withdrawNative",
      "outputs": [],
      "stateMutability": "nonpayable",
      "type": "function"
    }
  ],
  "bytecode": "0x60e06040526001600e556064600f553480156200001b57600080fd5b506040516200391a3803806200391a8339810160408190526200003e91620002a7565b3380600081620000955760405162461bcd60e51b815260206004820152601860248201527f43616e6e6f7420736574206f776e657220746f207a65726f000000000000000060448201526064015b60405180910390fd5b600080546001600160a01b0319166001600160a01b0384811691909117909155811615620000c857620000c881620000f6565b5050506001600160601b03808416608052821660a05260c0819052620000ed620001a1565b505050620002e8565b336001600160a01b03821603620001505760405162461bcd60e51b815260206004820152601760248201527f43616e6e6f74207472616e7366657220746f2073656c6600000000000000000060448201526064016200008c565b600180546001600160a01b0319166001600160a01b0383811691821790925560008054604051929316917fed8889f560326eb138920d842192f0eb3dd22b4f139c87a2c57538e05bae12789190a350565b620001ab6200022c565b6040805161012081018252600080825260208201819052818301819052606082018190526080820181905260a0820181905260c0820181905260e08201819052610100909101819052600c80546001600160c81b031916905590517f4b2974a542484cba2783812ff8033f7fc682cac2fe0905c28c5e27869b3155be9190a1565b6000546001600160a01b03163314620002885760405162461bcd60e51b815260206004820152601660248201527f4f6e6c792063616c6c61626c65206279206f776e65720000000000000000000060448201526064016200008c565b565b80516001600160601b0381168114620002a257600080fd5b919050565b600080600060608486031215620002bd57600080fd5b620002c8846200028a565b9250620002d8602085016200028a565b9150604084015190509250925092565b60805160a05160c0516135ed6200032d600039600081816103da0152610c250152600081816108070152610bac0152600081816104930152610bf701526135ed6000f3fe60806040526004361061024f5760003560e01c80638b673e7a11610138578063aefb212f116100b0578063dac83d291161007f578063dcab3dcf11610064578063dcab3dcf146107f5578063e72f6e3014610829578063f2fde38b1461084957600080fd5b8063dac83d29146107a4578063dc311dd3146107c457600080fd5b8063aefb212f14610717578063b2a7cac514610744578063bec4c08c14610764578063cb6317971461078457600080fd5b80639b1c385e11610107578063a21a23e4116100ec578063a21a23e4146106c2578063a4c0ed36146106d7578063aa433aff146106f757600080fd5b80639b1c385e146106685780639d40a6fd1461068857600080fd5b80638b673e7a146106025780638da5cb5b14610617578063953e9c751461063557806395b55cfc1461065557600080fd5b806341af6c87116101cb57806372e9d5651161019a578063808974ff1161017f578063808974ff146105a25780638402595e146105c257806386fe91c7146105e257600080fd5b806372e9d5651461056d57806379ba50971461058d57600080fd5b806341af6c87146104d557806351cff8d91461050557806364d51a2a14610525578063659827441461054d57600080fd5b806313478329116102225780631b6b6d23116102075780631b6b6d23146104495780631eebc117146104815780632f622e6b146104b557600080fd5b806313478329146103c857806318e3dd271461040a57600080fd5b8063088070f51461025457806308e3898e146103665780630ae0954014610388578063115e3c0d146103a8575b600080fd5b34801561026057600080fd5b50600c546103049061ffff81169063ffffffff62010000820481169160ff6601000000000000820481169267010000000000000083048116926b01000000000000000000000081048216926f01000000000000000000000000000000820483169273010000000000000000000000000000000000000083041691770100000000000000000000000000000000000000000000008104821691600160c01b9091041689565b6040805161ffff909a168a5263ffffffff98891660208b01529615159689019690965293861660608801529185166080870152841660a08601529290921660c084015260ff91821660e084015216610100820152610120015b60405180910390f35b34801561037257600080fd5b50610386610381366004612e22565b610869565b005b34801561039457600080fd5b506103866103a3366004612ee6565b610d12565b3480156103b457600080fd5b506103866103c3366004612f16565b610e12565b3480156103d457600080fd5b506103fc7f000000000000000000000000000000000000000000000000000000000000000081565b60405190815260200161035d565b34801561041657600080fd5b50600a5461043190600160601b90046001600160601b031681565b6040516001600160601b03909116815260200161035d565b34801561045557600080fd5b50600254610469906001600160a01b031681565b6040516001600160a01b03909116815260200161035d565b34801561048d57600080fd5b506104317f000000000000000000000000000000000000000000000000000000000000000081565b3480156104c157600080fd5b506103866104d0366004612f38565b610f26565b3480156104e157600080fd5b506104f56104f0366004612f55565b610fd5565b604051901515815260200161035d565b34801561051157600080fd5b50610386610520366004612f38565b610ff0565b34801561053157600080fd5b5061053a606481565b60405161ffff909116815260200161035d565b34801561055957600080fd5b50610386610568366004612f6e565b611115565b34801561057957600080fd5b50600354610469906001600160a01b031681565b34801561059957600080fd5b50610386611175565b3480156105ae57600080fd5b506103866105bd366004612ee6565b61122b565b3480156105ce57600080fd5b506103866105dd366004612f38565b61124f565b3480156105ee57600080fd5b50600a54610431906001600160601b031681565b34801561060e57600080fd5b5061038661136b565b34801561062357600080fd5b506000546001600160a01b0316610469565b34801561064157600080fd5b506104f5610650366004612ee6565b61140c565b610386610663366004612f55565b61143a565b34801561067457600080fd5b506103fc610683366004612f9c565b61154a565b34801561069457600080fd5b506007546106a99067ffffffffffffffff1681565b60405167ffffffffffffffff909116815260200161035d565b3480156106ce57600080fd5b506103fc6117ae565b3480156106e357600080fd5b506103866106f2366004612fd7565b6119b9565b34801561070357600080fd5b50610386610712366004612f55565b611b16565b34801561072357600080fd5b50610737610732366004612f16565b611b49565b60405161035d919061309b565b34801561075057600080fd5b5061038661075f366004612f55565b611c4b565b34801561077057600080fd5b5061038661077f366004612ee6565b611d3a565b34801561079057600080fd5b5061038661079f366004612ee6565b611e2c565b3480156107b057600080fd5b506103866107bf366004612ee6565b6120ba565b3480156107d057600080fd5b506107e46107df366004612f55565b612155565b60405161035d9594939291906130ae565b34801561080157600080fd5b506104317f000000000000000000000000000000000000000000000000000000000000000081565b34801561083557600080fd5b50610386610844366004612f38565b61222f565b34801561085557600080fd5b50610386610864366004612f38565b6123f9565b60005a6000858152601060205260408120549192500361089c576040516341abc80160e01b815260040160405180910390fd5b6000848152601060209081526040808320815160808101835281548152600182015463ffffffff808216958301959095526401000000009004909316918301919091526002810180546060840191906108f490613136565b80601f016020809104026020016040519081016040528092919081815260200182805461092090613136565b801561096d5780601f106109425761010080835404028352916020019161096d565b820191906000526020600020905b81548152906001019060200180831161095057829003601f168201915b50505050508152505090508251600003610a4757806040015163ffffffff1667ffffffffffffffff8111156109a4576109a4612ddb565b6040519080825280602002602001820160405280156109cd578160200160208202803683370190505b50925060005b816040015163ffffffff16811015610a415760408051602081018890529081018290526060016040516020818303038152906040528051906020012060001c848281518110610a2457610a24613170565b602090810291909101015280610a398161319c565b9150506109d3565b50610a72565b806040015163ffffffff16835114610a7257604051631f9efadb60e11b815260040160405180910390fd5b600080631fe543e360e01b8786604051602401610a909291906131b5565b60408051601f19818403018152918152602080830180517bffffffffffffffffffffffffffffffffffffffffffffffffffffffff166001600160e01b031990951694909417909352600c805466ff000000000000191666010000000000001790559185015191519092506000916001600160a01b0389169163ffffffff90911690610b1c9085906131fa565b60006040518083038160008787f1925050503d8060008114610b5a576040519150601f19603f3d011682016040523d82523d6000602084013e610b5f565b606091505b5050600c805466ff0000000000001916905560608501518051919250600091610b8a90600190613216565b81518110610b9a57610b9a613170565b60209101015160f81c600114905060007f00000000000000000000000000000000000000000000000000000000000000006001600160601b03165a610bdf9089613216565b610be99190613229565b610c1c906001600160601b037f000000000000000000000000000000000000000000000000000000000000000016613240565b905081610c63577f0000000000000000000000000000000000000000000000000000000000000000610c5682670de0b6b3a7640000613229565b610c609190613253565b90505b85518190610c74908290859061240d565b60008b815260106020526040812081815560018101805467ffffffffffffffff1916905590610ca66002830182612cf8565b50508651604080518d81526001600160601b03841660208201528515158183015286151560608201526000608082015290518d917faeb4b4786571e184246d39587f659abf0e26f41f6a3358692250382c0cdb47b7919081900360a00190a35050505050505050505050565b81610d1c81612573565b610d246125c8565b600080610d30856125f8565b915091506000846001600160a01b0316826001600160601b031660405160006040518083038185875af1925050503d8060008114610d8a576040519150601f19603f3d011682016040523d82523d6000602084013e610d8f565b606091505b5050905080610db15760405163950b247960e01b815260040160405180910390fd5b604080516001600160a01b03871681526001600160601b03808616602083015284169181019190915286907f8c74ce8b8cf87f5eb001275c8be27eb34ea2b62bfab6814fcc62192bb63e81c4906060015b60405180910390a2505050505050565b6000828152600560205260409020546001600160a01b0316610e4757604051630fb532db60e11b815260040160405180910390fd5b600082815260066020526040812080546001600160601b031691839190610e6e8385613275565b92506101000a8154816001600160601b0302191690836001600160601b0316021790555081600a60008282829054906101000a90046001600160601b0316610eb69190613275565b92506101000a8154816001600160601b0302191690836001600160601b03160217905550827f1ced9348ff549fceab2ac57cd3a9de38edaaab274b725ee82c23e8fc8c4eec7a828484610f099190613240565b6040805192835260208301919091520160405180910390a2505050565b610f2e6125c8565b610f366127aa565b600b54600160601b90046001600160601b0316610f54811515612804565b600b805477ffffffffffffffffffffffff00000000000000000000000019169055600a8054829190600c90610f9a908490600160601b90046001600160601b0316613295565b92506101000a8154816001600160601b0302191690836001600160601b03160217905550610fd182826001600160601b0316612822565b5050565b600060405163d623472560e01b815260040160405180910390fd5b610ff86125c8565b6110006127aa565b6002546001600160a01b03166110295760405163c1f0c0a160e01b815260040160405180910390fd5b600b546001600160601b0316611040811515612804565b600b80546bffffffffffffffffffffffff19169055600a80548291906000906110739084906001600160601b0316613295565b82546101009290920a6001600160601b0381810219909316918316021790915560025460405163a9059cbb60e01b81526001600160a01b0386811660048301529285166024820152610fd1935091169063a9059cbb906044015b6020604051808303816000875af11580156110ec573d6000803e3d6000fd5b505050506040513d601f19601f8201168201806040525081019061111091906132c3565b612804565b61111d6127aa565b6002546001600160a01b03161561114757604051631688c53760e11b815260040160405180910390fd5b600280546001600160a01b039384166001600160a01b03199182161790915560038054929093169116179055565b6001546001600160a01b031633146111d45760405162461bcd60e51b815260206004820152601660248201527f4d7573742062652070726f706f736564206f776e65720000000000000000000060448201526064015b60405180910390fd5b60008054336001600160a01b0319808316821784556001805490911690556040516001600160a01b0390921692909183917f8be0079c531659141344cd1fd0a4f28419497f9722a3daafe3b4186f6b6457e091a350565b6112336125c8565b604080516000815260208101909152610fd19083908390610869565b6112576127aa565b600a544790600160601b90046001600160601b031681811115611297576040516354ced18160e11b815260048101829052602481018390526044016111cb565b818110156113665760006112ab8284613216565b90506000846001600160a01b03168260405160006040518083038185875af1925050503d80600081146112fa576040519150601f19603f3d011682016040523d82523d6000602084013e6112ff565b606091505b50509050806113215760405163950b247960e01b815260040160405180910390fd5b604080516001600160a01b0387168152602081018490527f4aed7c8eed0496c8c19ea2681fcca25741c1602342e38b045d9f1e8e905d2e9c910160405180910390a150505b505050565b6113736127aa565b6040805161012081018252600080825260208201819052818301819052606082018190526080820181905260a0820181905260c0820181905260e08201819052610100909101819052600c80547fffffffffffffff0000000000000000000000000000000000000000000000000016905590517f4b2974a542484cba2783812ff8033f7fc682cac2fe0905c28c5e27869b3155be9190a1565b6001600160a01b038116600090815260046020908152604080832085845290915290205460ff165b92915050565b6114426125c8565b600081815260056020526040902054611463906001600160a01b0316612896565b60008181526006602052604090208054600160601b90046001600160601b0316903490600c6114928385613275565b92506101000a8154816001600160601b0302191690836001600160601b0316021790555034600a600c8282829054906101000a90046001600160601b03166114da9190613275565b92506101000a8154816001600160601b0302191690836001600160601b03160217905550817f7603b205d03651ee812f803fccde89f1012e545a9c99f0abfea9cedd0fd8e90282348461152d9190613240565b604080519283526020830191909152015b60405180910390a25050565b60006115546125c8565b816020013533611564828261140c565b611593576040516379bfd40160e01b8152600481018390526001600160a01b03821660248201526044016111cb565b602080850135600081815260059092526040909120546001600160a01b03166115cf57604051630fb532db60e11b815260040160405180910390fd5b600e8054600091826115e08361319c565b90915550600f805491925060009190826115f98361319c565b909155509050600061161e61161961161460a08b018b6132e0565b6128bd565b612945565b9050604051806080016040528089602001358152602001896060016020810190611648919061332e565b63ffffffff16815260200161166360a08b0160808c0161332e565b63ffffffff16815260200161167b60a08b018b6132e0565b8080601f01602080910402602001604051908101604052809392919081815260200183838082843760009201829052509390945250508581526010602090815260409182902084518155908401516001820180549386015163ffffffff9081166401000000000267ffffffffffffffff19909516921691909117929092179091556060830151909150600282019061171390826133a2565b50905050336001600160a01b0316886020013589600001357feb0e3652e0f44f417695e6e90f2f42c99b65cd7169074c5a654b16b9748c3a4e86868d60400160208101906117619190613462565b8e6060016020810190611774919061332e565b8f6080016020810190611787919061332e565b8960405161179a96959493929190613486565b60405180910390a450909695505050505050565b60006117b86125c8565b60075467ffffffffffffffff16336117d1600143613216565b6040516bffffffffffffffffffffffff19606093841b81166020830152914060348201523090921b16605482015277ffffffffffffffffffffffffffffffffffffffffffffffff1960c083901b16606882015260700160408051601f198184030181529190528051602090910120915061184c8160016134ea565b6007805467ffffffffffffffff191667ffffffffffffffff928316179055604080516000808252608082018352602080830182815283850183815260608086018581528a86526006855287862093518454935191516001600160601b0391821677ffffffffffffffffffffffffffffffffffffffffffffffff1990951694909417600160601b91909216021777ffffffffffffffffffffffffffffffffffffffffffffffff16600160c01b9290981691909102969096179055835194850184523385528481018281528585018481528884526005835294909220855181546001600160a01b03199081166001600160a01b03928316178355935160018301805490951691161790925592518051929493919261196e9260028501920190612d32565b5061197e915060089050846129cb565b5060405133815283907f1d3015d7ba850fa198dc7b1a3f5d42779313a681035f77c8c03764c61005518d9060200160405180910390a2505090565b6119c16125c8565b6002546001600160a01b031633146119ec576040516344b0e3c360e01b815260040160405180910390fd5b60208114611a0d57604051638129bbcd60e01b815260040160405180910390fd5b6000611a1b82840184612f55565b600081815260056020526040902054909150611a3f906001600160a01b0316612896565b600081815260066020526040812080546001600160601b031691869190611a668385613275565b92506101000a8154816001600160601b0302191690836001600160601b0316021790555084600a60008282829054906101000a90046001600160601b0316611aae9190613275565b92506101000a8154816001600160601b0302191690836001600160601b03160217905550817f1ced9348ff549fceab2ac57cd3a9de38edaaab274b725ee82c23e8fc8c4eec7a828784611b019190613240565b60408051928352602083019190915201610e02565b611b1e6127aa565b6000818152600560205260409020546001600160a01b0316611b3f81612896565b610fd182826129d7565b60606000611b576008612aba565b9050808410611b7957604051631390f2a160e01b815260040160405180910390fd5b6000611b858486613240565b905081811180611b93575083155b611b9d5780611b9f565b815b90506000611bad8683613216565b90508067ffffffffffffffff811115611bc857611bc8612ddb565b604051908082528060200260200182016040528015611bf1578160200160208202803683370190505b50935060005b81811015611c4157611c14611c0c8883613240565b600890612ac4565b858281518110611c2657611c26613170565b6020908102919091010152611c3a8161319c565b9050611bf7565b5050505092915050565b611c536125c8565b6000818152600560205260409020546001600160a01b0316611c7481612896565b6000828152600560205260409020600101546001600160a01b03163314611ccd576000828152600560205260409081902060010154905163d084e97560e01b81526001600160a01b0390911660048201526024016111cb565b6000828152600560209081526040918290208054336001600160a01b03199182168117835560019092018054909116905582516001600160a01b03851681529182015283917fd4114ab6e9af9f597c52041f32d62dc57c5c4e4c0d4427006069635e216c9386910161153e565b81611d4481612573565b611d4c6125c8565b6001600160a01b03821660009081526004602090815260408083208684529091529020805460ff1615611d7f5750505050565b6000848152600560205260409020600201805460631901611db3576040516305a48e0f60e01b815260040160405180910390fd5b8154600160ff199091168117835581549081018255600082815260209081902090910180546001600160a01b0319166001600160a01b03871690811790915560405190815286917f1e980d04aa7648e205713e5e8ea3808672ac163d10936d36f91b2c88ac1575e1910160405180910390a25050505050565b81611e3681612573565b8282611e42828261140c565b611e71576040516379bfd40160e01b8152600481018390526001600160a01b03821660248201526044016111cb565b611e796125c8565b6001600160a01b038416600090815260046020908152604080832088845290915290205460ff16611ecf576040516379bfd40160e01b8152600481018690526001600160a01b03851660248201526044016111cb565b600085815260056020908152604080832060020180548251818502810185019093528083529192909190830182828015611f3257602002820191906000526020600020905b81546001600160a01b03168152600190910190602001808311611f14575b50505050509050600060018251611f499190613216565b905060005b825181101561205257866001600160a01b0316838281518110611f7357611f73613170565b60200260200101516001600160a01b031603612042576000838381518110611f9d57611f9d613170565b6020026020010151905080600560008b81526020019081526020016000206002018381548110611fcf57611fcf613170565b600091825260208083209190910180546001600160a01b0319166001600160a01b0394909416939093179092558a815260059091526040902060020180548061201a5761201a61350b565b600082815260209020810160001990810180546001600160a01b031916905501905550612052565b61204b8161319c565b9050611f4e565b506001600160a01b03861660008181526004602090815260408083208b8452825291829020805460ff19169055905191825288917f32158c6058347c1601b2d12bc696ac6901d8a9a9aa3ba10c27ab0a983e8425a7910160405180910390a250505050505050565b816120c481612573565b6120cc6125c8565b600083815260056020526040902060018101546001600160a01b0384811691161461214f576001810180546001600160a01b0319166001600160a01b03851690811790915560408051338152602081019290925285917f21a4dad170a6bf476c31bbcf4a16628295b0e450672eec25d7c93308e05344a191015b60405180910390a25b50505050565b600081815260056020526040812054819081906001600160a01b0316606061217c82612896565b600086815260066020908152604080832054600583529281902060020180548251818502810185019093528083526001600160601b0380861695600160601b810490911694600160c01b90910467ffffffffffffffff1693889392909183919083018282801561221557602002820191906000526020600020905b81546001600160a01b031681526001909101906020018083116121f7575b505050505090509450945094509450945091939590929450565b6122376127aa565b6002546001600160a01b03166122605760405163c1f0c0a160e01b815260040160405180910390fd5b6002546040516370a0823160e01b81523060048201526000916001600160a01b0316906370a0823190602401602060405180830381865afa1580156122a9573d6000803e3d6000fd5b505050506040513d601f19601f820116820180604052508101906122cd9190613521565b600a549091506001600160601b031681811115612307576040516354ced18160e11b815260048101829052602481018390526044016111cb565b8181101561136657600061231b8284613216565b60025460405163a9059cbb60e01b81526001600160a01b0387811660048301526024820184905292935091169063a9059cbb906044016020604051808303816000875af1158015612370573d6000803e3d6000fd5b505050506040513d601f19601f8201168201806040525081019061239491906132c3565b6123b157604051631f01ff1360e21b815260040160405180910390fd5b604080516001600160a01b0386168152602081018390527f59bfc682b673f8cbf945f1e454df9334834abf7dfe7f92237ca29ecb9b436600910160405180910390a150505050565b6124016127aa565b61240a81612ad0565b50565b600081815260066020526040902082156124da5780546001600160601b03600160601b909104811690851681101561245857604051631e9acf1760e31b815260040160405180910390fd5b6124628582613295565b825477ffffffffffffffffffffffff0000000000000000000000001916600160601b6001600160601b039283168102919091178455600b805488939192600c926124b0928692900416613275565b92506101000a8154816001600160601b0302191690836001600160601b031602179055505061214f565b80546001600160601b0390811690851681101561250a57604051631e9acf1760e31b815260040160405180910390fd5b6125148582613295565b82546bffffffffffffffffffffffff19166001600160601b03918216178355600b8054879260009161254891859116613275565b92506101000a8154816001600160601b0302191690836001600160601b031602179055505050505050565b6000818152600560205260409020546001600160a01b031661259481612896565b336001600160a01b03821614610fd157604051636c51fda960e11b81526001600160a01b03821660048201526024016111cb565b600c546601000000000000900460ff16156125f65760405163769dd35360e11b815260040160405180910390fd5b565b60008181526005602090815260408083206006909252822054600290910180546001600160601b0380841694600160601b90940416925b818110156126a4576004600084838154811061264d5761264d613170565b60009182526020808320909101546001600160a01b0316835282810193909352604091820181208982529092529020805470ffffffffffffffffffffffffffffffffff1916905561269d8161319c565b905061262f565b50600085815260056020526040812080546001600160a01b031990811682556001820180549091169055906126dc6002830182612d97565b50506000858152600660205260408120556126f8600886612b79565b506001600160601b0384161561274b57600a80548591906000906127269084906001600160601b0316613295565b92506101000a8154816001600160601b0302191690836001600160601b031602179055505b6001600160601b038316156127a35782600a600c8282829054906101000a90046001600160601b031661277e9190613295565b92506101000a8154816001600160601b0302191690836001600160601b031602179055505b5050915091565b6000546001600160a01b031633146125f65760405162461bcd60e51b815260206004820152601660248201527f4f6e6c792063616c6c61626c65206279206f776e65720000000000000000000060448201526064016111cb565b8061240a57604051631e9acf1760e31b815260040160405180910390fd5b6000826001600160a01b03168260405160006040518083038185875af1925050503d806000811461286f576040519150601f19603f3d011682016040523d82523d6000602084013e612874565b606091505b50509050806113665760405163950b247960e01b815260040160405180910390fd5b6001600160a01b03811661240a57604051630fb532db60e11b815260040160405180910390fd5b60408051602081019091526000815260008290036128ea5750604080516020810190915260008152611434565b63125fa26760e31b6128fc838561353a565b6001600160e01b0319161461292457604051632923fee760e11b815260040160405180910390fd5b612931826004818661356a565b81019061293e9190613594565b9392505050565b60607f92fd13387c7fe7befbc38d303d6468778fb9731bc4583f17d92989c6fcfdeaaa8260405160240161297e91511515815260200190565b60408051601f198184030181529190526020810180517bffffffffffffffffffffffffffffffffffffffffffffffffffffffff166001600160e01b03199093169290921790915292915050565b600061293e8383612b85565b6000806129e3846125f8565b60025491935091506001600160a01b031615801590612a0a57506001600160601b03821615155b15612a525760025460405163a9059cbb60e01b81526001600160a01b0385811660048301526001600160601b0385166024830152612a5292169063a9059cbb906044016110cd565b612a6583826001600160601b0316612822565b604080516001600160a01b03851681526001600160601b03808516602083015283169181019190915284907f8c74ce8b8cf87f5eb001275c8be27eb34ea2b62bfab6814fcc62192bb63e81c490606001612146565b6000611434825490565b600061293e8383612bd4565b336001600160a01b03821603612b285760405162461bcd60e51b815260206004820152601760248201527f43616e6e6f74207472616e7366657220746f2073656c6600000000000000000060448201526064016111cb565b600180546001600160a01b0319166001600160a01b0383811691821790925560008054604051929316917fed8889f560326eb138920d842192f0eb3dd22b4f139c87a2c57538e05bae12789190a350565b600061293e8383612bfe565b6000818152600183016020526040812054612bcc57508154600181810184556000848152602080822090930184905584548482528286019093526040902091909155611434565b506000611434565b6000826000018281548110612beb57612beb613170565b9060005260206000200154905092915050565b60008181526001830160205260408120548015612ce7576000612c22600183613216565b8554909150600090612c3690600190613216565b9050818114612c9b576000866000018281548110612c5657612c56613170565b9060005260206000200154905080876000018481548110612c7957612c79613170565b6000918252602080832090910192909255918252600188019052604090208390555b8554869080612cac57612cac61350b565b600190038181906000526020600020016000905590558560010160008681526020019081526020016000206000905560019350505050611434565b6000915050611434565b5092915050565b508054612d0490613136565b6000825580601f10612d14575050565b601f01602090049060005260206000209081019061240a9190612db1565b828054828255906000526020600020908101928215612d87579160200282015b82811115612d8757825182546001600160a01b0319166001600160a01b03909116178255602090920191600190910190612d52565b50612d93929150612db1565b5090565b508054600082559060005260206000209081019061240a91905b5b80821115612d935760008155600101612db2565b6001600160a01b038116811461240a57600080fd5b634e487b7160e01b600052604160045260246000fd5b604051601f8201601f1916810167ffffffffffffffff81118282101715612e1a57612e1a612ddb565b604052919050565b600080600060608486031215612e3757600080fd5b83359250602080850135612e4a81612dc6565b9250604085013567ffffffffffffffff80821115612e6757600080fd5b818701915087601f830112612e7b57600080fd5b813581811115612e8d57612e8d612ddb565b8060051b9150612e9e848301612df1565b818152918301840191848101908a841115612eb857600080fd5b938501935b83851015612ed657843582529385019390850190612ebd565b8096505050505050509250925092565b60008060408385031215612ef957600080fd5b823591506020830135612f0b81612dc6565b809150509250929050565b60008060408385031215612f2957600080fd5b50508035926020909101359150565b600060208284031215612f4a57600080fd5b813561293e81612dc6565b600060208284031215612f6757600080fd5b5035919050565b60008060408385031215612f8157600080fd5b8235612f8c81612dc6565b91506020830135612f0b81612dc6565b600060208284031215612fae57600080fd5b813567ffffffffffffffff811115612fc557600080fd5b820160c0818503121561293e57600080fd5b60008060008060608587031215612fed57600080fd5b8435612ff881612dc6565b935060208501359250604085013567ffffffffffffffff8082111561301c57600080fd5b818701915087601f83011261303057600080fd5b81358181111561303f57600080fd5b88602082850101111561305157600080fd5b95989497505060200194505050565b600081518084526020808501945080840160005b8381101561309057815187529582019590820190600101613074565b509495945050505050565b60208152600061293e6020830184613060565b600060a082016001600160601b03808916845260208189168186015267ffffffffffffffff881660408601526001600160a01b039150818716606086015260a0608086015282865180855260c087019150828801945060005b81811015613125578551851683529483019491830191600101613107565b50909b9a5050505050505050505050565b600181811c9082168061314a57607f821691505b60208210810361316a57634e487b7160e01b600052602260045260246000fd5b50919050565b634e487b7160e01b600052603260045260246000fd5b634e487b7160e01b600052601160045260246000fd5b6000600182016131ae576131ae613186565b5060010190565b8281526040602082015260006131ce6040830184613060565b949350505050565b60005b838110156131f15781810151838201526020016131d9565b50506000910152565b6000825161320c8184602087016131d6565b9190910192915050565b8181038181111561143457611434613186565b808202811582820484141761143457611434613186565b8082018082111561143457611434613186565b60008261327057634e487b7160e01b600052601260045260246000fd5b500490565b6001600160601b03818116838216019080821115612cf157612cf1613186565b6001600160601b03828116828216039080821115612cf157612cf1613186565b801515811461240a57600080fd5b6000602082840312156132d557600080fd5b815161293e816132b5565b6000808335601e198436030181126132f757600080fd5b83018035915067ffffffffffffffff82111561331257600080fd5b60200191503681900382131561332757600080fd5b9250929050565b60006020828403121561334057600080fd5b813563ffffffff8116811461293e57600080fd5b601f82111561136657600081815260208120601f850160051c8101602086101561337b5750805b601f850160051c820191505b8181101561339a57828155600101613387565b505050505050565b815167ffffffffffffffff8111156133bc576133bc612ddb565b6133d0816133ca8454613136565b84613354565b602080601f83116001811461340557600084156133ed5750858301515b600019600386901b1c1916600185901b17855561339a565b600085815260208120601f198616915b8281101561343457888601518255948401946001909101908401613415565b50858210156134525787850151600019600388901b60f8161c191681555b5050505050600190811b01905550565b60006020828403121561347457600080fd5b813561ffff8116811461293e57600080fd5b86815285602082015261ffff85166040820152600063ffffffff808616606084015280851660808401525060c060a083015282518060c08401526134d18160e08501602087016131d6565b601f01601f19169190910160e001979650505050505050565b67ffffffffffffffff818116838216019080821115612cf157612cf1613186565b634e487b7160e01b600052603160045260246000fd5b60006020828403121561353357600080fd5b5051919050565b6001600160e01b031981358181169160048510156135625780818660040360031b1b83161692505b505092915050565b6000808585111561357a57600080fd5b8386111561358757600080fd5b5050820193919092039150565b6000602082840312156135a657600080fd5b6040516020810181811067ffffffffffffffff821117156135c9576135c9612ddb565b60405282356135d7816132b5565b8152939250505056fea164736f6c6343000813000a",
  "linkReferences": {},
  "deployedLinkReferences": {}
}