{
  "_format": "hh-sol-artifact-1",
  "contractName": "Jammy",
  "sourceName": "contracts/Jammy.sol",
  "abi": [
    {
      "inputs": [
        {
          "internalType": "address",
          "name": "_vrfCoordinator",
          "type": "address"
        },
        {
          "internalType": "bytes32",
          "name": "_keyhash",
          "type": "bytes32"
        },
        {
          "internalType": "uint256",
          "name": "_subscriptionId",
          "type": "uint256"
        },
        {
          "internalType": "uint32",
          "name": "_callbackGasLimit",
          "type": "uint32"
        },
        {
          "internalType": "uint256",
          "name": "_team1Shares",
          "type": "uint256"
        },
        {
          "internalType": "uint256",
          "name": "_team2Shares",
          "type": "uint256"
        },
        {
          "internalType": "address",
          "name": "_team1Address",
          "type": "address"
        },
        {
          "internalType": "address",
          "name": "_team2Address",
          "type": "address"
        }
      ],
      "stateMutability": "nonpayable",
      "type": "constructor"
    },
    {
      "inputs": [],
      "name": "AlreadyInWinnersList",
      "type": "error"
    },
    {
      "inputs": [],
      "name": "AlreadyJoined",
      "type": "error"
    },
    {
      "inputs": [],
      "name": "AlreadyRefunded",
      "type": "error"
    },
    {
      "inputs": [],
      "name": "CardDoesNotWin",
      "type": "error"
    },
    {
      "inputs": [],
      "name": "CardNotFound",
      "type": "error"
    },
    {
      "inputs": [],
      "name": "CardNotReady",
      "type": "error"
    },
    {
      "inputs": [],
      "name": "CardsSoldOut",
      "type": "error"
    },
    {
      "inputs": [],
      "name": "CatchFire",
      "type": "error"
    },
    {
      "inputs": [],
      "name": "GameAlreadyStarted",
      "type": "error"
    },
    {
      "inputs": [],
      "name": "InputValidation",
      "type": "error"
    },
    {
      "inputs": [],
      "name": "NoCardFound",
      "type": "error"
    },
    {
      "inputs": [],
      "name": "NothingToRefund",
      "type": "error"
    },
    {
      "inputs": [
        {
          "internalType": "address",
          "name": "have",
          "type": "address"
        },
        {
          "internalType": "address",
          "name": "want",
          "type": "address"
        }
      ],
      "name": "OnlyCoordinatorCanFulfill",
      "type": "error"
    },
    {
      "inputs": [
        {
          "internalType": "address",
          "name": "have",
          "type": "address"
        },
        {
          "internalType": "address",
          "name": "owner",
          "type": "address"
        },
        {
          "internalType": "address",
          "name": "coordinator",
          "type": "address"
        }
      ],
      "name": "OnlyOwnerOrCoordinator",
      "type": "error"
    },
    {
      "inputs": [],
      "name": "PendingSeed",
      "type": "error"
    },
    {
      "inputs": [],
      "name": "PrizeAlreadyClaimed",
      "type": "error"
    },
    {
      "inputs": [],
      "name": "PrizeAlreadyWon",
      "type": "error"
    },
    {
      "inputs": [
        {
          "internalType": "uint256",
          "name": "reqId",
          "type": "uint256"
        }
      ],
      "name": "ReqNotFound",
      "type": "error"
    },
    {
      "inputs": [],
      "name": "TransferFailed",
      "type": "error"
    },
    {
      "inputs": [],
      "name": "Unauthorized",
      "type": "error"
    },
    {
      "inputs": [],
      "name": "UnknownRequest",
      "type": "error"
    },
    {
      "inputs": [],
      "name": "WrongAmount",
      "type": "error"
    },
    {
      "inputs": [],
      "name": "WrongGameStatus",
      "type": "error"
    },
    {
      "inputs": [],
      "name": "WrongPayment",
      "type": "error"
    },
    {
      "inputs": [],
      "name": "ZeroAddress",
      "type": "error"
    },
    {
      "anonymous": false,
      "inputs": [
        {
          "indexed": false,
          "internalType": "address",
          "name": "account",
          "type": "address"
        },
        {
          "indexed": false,
          "internalType": "bool",
          "name": "state",
          "type": "bool"
        }
      ],
      "name": "AdminSet",
      "type": "event"
    },
    {
      "anonymous": false,
      "inputs": [
        {
          "indexed": false,
          "internalType": "uint256",
          "name": "gameId",
          "type": "uint256"
        },
        {
          "indexed": false,
          "internalType": "address",
          "name": "player",
          "type": "address"
        },
        {
          "indexed": false,
          "internalType": "uint256",
          "name": "playerCardIndex",
          "type": "uint256"
        }
      ],
      "name": "CardRedrawn",
      "type": "event"
    },
    {
      "anonymous": false,
      "inputs": [
        {
          "indexed": false,
          "internalType": "uint256",
          "name": "amount",
          "type": "uint256"
        },
        {
          "indexed": false,
          "internalType": "uint256",
          "name": "newCount",
          "type": "uint256"
        }
      ],
      "name": "CardsAdded",
      "type": "event"
    },
    {
      "anonymous": false,
      "inputs": [
        {
          "indexed": false,
          "internalType": "uint256",
          "name": "amount",
          "type": "uint256"
        }
      ],
      "name": "CardsUpdated",
      "type": "event"
    },
    {
      "anonymous": false,
      "inputs": [
        {
          "indexed": false,
          "internalType": "address",
          "name": "vrfCoordinator",
          "type": "address"
        }
      ],
      "name": "CoordinatorSet",
      "type": "event"
    },
    {
      "anonymous": false,
      "inputs": [
        {
          "indexed": false,
          "internalType": "uint256",
          "name": "gameId",
          "type": "uint256"
        }
      ],
      "name": "GameCancelled",
      "type": "event"
    },
    {
      "anonymous": false,
      "inputs": [
        {
          "indexed": true,
          "internalType": "address",
          "name": "host",
          "type": "address"
        },
        {
          "indexed": false,
          "internalType": "uint256",
          "name": "gameId",
          "type": "uint256"
        }
      ],
      "name": "GameCreated",
      "type": "event"
    },
    {
      "anonymous": false,
      "inputs": [
        {
          "indexed": false,
          "internalType": "uint256",
          "name": "gameId",
          "type": "uint256"
        }
      ],
      "name": "GameEnds",
      "type": "event"
    },
    {
      "anonymous": false,
      "inputs": [
        {
          "indexed": false,
          "internalType": "uint256",
          "name": "gameId",
          "type": "uint256"
        }
      ],
      "name": "GameStarted",
      "type": "event"
    },
    {
      "anonymous": false,
      "inputs": [
        {
          "indexed": false,
          "internalType": "address",
          "name": "account",
          "type": "address"
        },
        {
          "indexed": false,
          "internalType": "bool",
          "name": "state",
          "type": "bool"
        }
      ],
      "name": "HostSet",
      "type": "event"
    },
    {
      "anonymous": false,
      "inputs": [
        {
          "indexed": false,
          "internalType": "uint256",
          "name": "gameId",
          "type": "uint256"
        },
        {
          "indexed": false,
          "internalType": "uint8",
          "name": "revealedNum",
          "type": "uint8"
        }
      ],
      "name": "NumberRevealed",
      "type": "event"
    },
    {
      "anonymous": false,
      "inputs": [
        {
          "indexed": true,
          "internalType": "address",
          "name": "from",
          "type": "address"
        },
        {
          "indexed": true,
          "internalType": "address",
          "name": "to",
          "type": "address"
        }
      ],
      "name": "OwnershipTransferRequested",
      "type": "event"
    },
    {
      "anonymous": false,
      "inputs": [
        {
          "indexed": true,
          "internalType": "address",
          "name": "from",
          "type": "address"
        },
        {
          "indexed": true,
          "internalType": "address",
          "name": "to",
          "type": "address"
        }
      ],
      "name": "OwnershipTransferred",
      "type": "event"
    },
    {
      "anonymous": false,
      "inputs": [
        {
          "indexed": false,
          "internalType": "uint256",
          "name": "gameId",
          "type": "uint256"
        },
        {
          "indexed": false,
          "internalType": "address",
          "name": "player",
          "type": "address"
        },
        {
          "indexed": false,
          "internalType": "uint256",
          "name": "cardsCount",
          "type": "uint256"
        }
      ],
      "name": "PlayerJoined",
      "type": "event"
    },
    {
      "anonymous": false,
      "inputs": [
        {
          "indexed": false,
          "internalType": "uint256",
          "name": "gameId",
          "type": "uint256"
        },
        {
          "indexed": false,
          "internalType": "uint256",
          "name": "totalAmount",
          "type": "uint256"
        }
      ],
      "name": "PrizeCollected",
      "type": "event"
    },
    {
      "anonymous": false,
      "inputs": [
        {
          "indexed": false,
          "internalType": "uint256",
          "name": "gameId",
          "type": "uint256"
        },
        {
          "indexed": false,
          "internalType": "uint256",
          "name": "prizeIndex",
          "type": "uint256"
        },
        {
          "indexed": false,
          "internalType": "address",
          "name": "winner",
          "type": "address"
        }
      ],
      "name": "PrizeWon",
      "type": "event"
    },
    {
      "anonymous": false,
      "inputs": [
        {
          "indexed": true,
          "internalType": "uint256",
          "name": "gameId",
          "type": "uint256"
        },
        {
          "indexed": true,
          "internalType": "address",
          "name": "account",
          "type": "address"
        },
        {
          "indexed": false,
          "internalType": "uint256",
          "name": "amount",
          "type": "uint256"
        }
      ],
      "name": "RefundSent",
      "type": "event"
    },
    {
      "anonymous": false,
      "inputs": [
        {
          "indexed": false,
          "internalType": "uint256",
          "name": "requestId",
          "type": "uint256"
        },
        {
          "indexed": true,
          "internalType": "enum IJammy.RandomRequestType",
          "name": "reqType",
          "type": "uint8"
        },
        {
          "indexed": false,
          "internalType": "address",
          "name": "player",
          "type": "address"
        },
        {
          "indexed": false,
          "internalType": "uint256",
          "name": "numberOfWords",
          "type": "uint256"
        }
      ],
      "name": "RequestFulfilled",
      "type": "event"
    },
    {
      "anonymous": false,
      "inputs": [
        {
          "indexed": false,
          "internalType": "uint256",
          "name": "requestId",
          "type": "uint256"
        },
        {
          "indexed": false,
          "internalType": "uint32",
          "name": "numberOfWords",
          "type": "uint32"
        }
      ],
      "name": "RequestSent",
      "type": "event"
    },
    {
      "inputs": [],
      "name": "EXPIRATION_DURATION",
      "outputs": [
        {
          "internalType": "uint256",
          "name": "",
          "type": "uint256"
        }
      ],
      "stateMutability": "view",
      "type": "function"
    },
    {
      "inputs": [],
      "name": "MAX_NUMBER",
      "outputs": [
        {
          "internalType": "uint256",
          "name": "",
          "type": "uint256"
        }
      ],
      "stateMutability": "view",
      "type": "function"
    },
    {
      "inputs": [],
      "name": "PRECISION_BASIS",
      "outputs": [
        {
          "internalType": "uint256",
          "name": "",
          "type": "uint256"
        }
      ],
      "stateMutability": "view",
      "type": "function"
    },
    {
      "inputs": [],
      "name": "PRIZE_COUNT",
      "outputs": [
        {
          "internalType": "uint256",
          "name": "",
          "type": "uint256"
        }
      ],
      "stateMutability": "view",
      "type": "function"
    },
    {
      "inputs": [],
      "name": "acceptOwnership",
      "outputs": [],
      "stateMutability": "nonpayable",
      "type": "function"
    },
    {
      "inputs": [
        {
          "internalType": "address",
          "name": "",
          "type": "address"
        }
      ],
      "name": "admins",
      "outputs": [
        {
          "internalType": "bool",
          "name": "",
          "type": "bool"
        }
      ],
      "stateMutability": "view",
      "type": "function"
    },
    {
      "inputs": [
        {
          "internalType": "uint256",
          "name": "",
          "type": "uint256"
        }
      ],
      "name": "availableNumbers",
      "outputs": [
        {
          "internalType": "uint8",
          "name": "",
          "type": "uint8"
        }
      ],
      "stateMutability": "view",
      "type": "function"
    },
    {
      "inputs": [
        {
          "internalType": "uint256[]",
          "name": "newCards",
          "type": "uint256[]"
        }
      ],
      "name": "batchAddCards",
      "outputs": [],
      "stateMutability": "nonpayable",
      "type": "function"
    },
    {
      "inputs": [
        {
          "internalType": "uint256[]",
          "name": "indexes",
          "type": "uint256[]"
        },
        {
          "internalType": "uint256[]",
          "name": "newCards",
          "type": "uint256[]"
        }
      ],
      "name": "batchUpdateCards",
      "outputs": [],
      "stateMutability": "nonpayable",
      "type": "function"
    },
    {
      "inputs": [],
      "name": "callbackGasLimit",
      "outputs": [
        {
          "internalType": "uint32",
          "name": "",
          "type": "uint32"
        }
      ],
      "stateMutability": "view",
      "type": "function"
    },
    {
      "inputs": [
        {
          "internalType": "uint256",
          "name": "gameId",
          "type": "uint256"
        }
      ],
      "name": "cancelGame",
      "outputs": [],
      "stateMutability": "nonpayable",
      "type": "function"
    },
    {
      "inputs": [
        {
          "internalType": "uint256",
          "name": "",
          "type": "uint256"
        }
      ],
      "name": "cards",
      "outputs": [
        {
          "internalType": "uint256",
          "name": "",
          "type": "uint256"
        }
      ],
      "stateMutability": "view",
      "type": "function"
    },
    {
      "inputs": [
        {
          "internalType": "uint256",
          "name": "gameId",
          "type": "uint256"
        }
      ],
      "name": "claimPrize",
      "outputs": [],
      "stateMutability": "nonpayable",
      "type": "function"
    },
    {
      "inputs": [
        {
          "internalType": "uint256",
          "name": "gameId",
          "type": "uint256"
        }
      ],
      "name": "claimRefund",
      "outputs": [],
      "stateMutability": "nonpayable",
      "type": "function"
    },
    {
      "inputs": [
        {
          "internalType": "uint256",
          "name": "startDate",
          "type": "uint256"
        },
        {
          "internalType": "uint256",
          "name": "maxCardsPerPlayer",
          "type": "uint256"
        },
        {
          "internalType": "uint256",
          "name": "cardPrice",
          "type": "uint256"
        },
        {
          "internalType": "uint256",
          "name": "houseShare",
          "type": "uint256"
        },
        {
          "internalType": "uint256[]",
          "name": "prizeShares",
          "type": "uint256[]"
        }
      ],
      "name": "createGame",
      "outputs": [],
      "stateMutability": "nonpayable",
      "type": "function"
    },
    {
      "inputs": [],
      "name": "deployer",
      "outputs": [
        {
          "internalType": "address",
          "name": "",
          "type": "address"
        }
      ],
      "stateMutability": "view",
      "type": "function"
    },
    {
      "inputs": [
        {
          "internalType": "uint256",
          "name": "",
          "type": "uint256"
        },
        {
          "internalType": "uint8",
          "name": "",
          "type": "uint8"
        }
      ],
      "name": "drawnNumbers",
      "outputs": [
        {
          "internalType": "bool",
          "name": "",
          "type": "bool"
        }
      ],
      "stateMutability": "view",
      "type": "function"
    },
    {
      "inputs": [],
      "name": "gameCounter",
      "outputs": [
        {
          "internalType": "uint256",
          "name": "",
          "type": "uint256"
        }
      ],
      "stateMutability": "view",
      "type": "function"
    },
    {
      "inputs": [
        {
          "internalType": "uint256",
          "name": "",
          "type": "uint256"
        },
        {
          "internalType": "uint256",
          "name": "",
          "type": "uint256"
        }
      ],
      "name": "gamePrizes",
      "outputs": [
        {
          "internalType": "uint256",
          "name": "share",
          "type": "uint256"
        },
        {
          "internalType": "bool",
          "name": "won",
          "type": "bool"
        }
      ],
      "stateMutability": "view",
      "type": "function"
    },
    {
      "inputs": [
        {
          "internalType": "uint256",
          "name": "gameId",
          "type": "uint256"
        }
      ],
      "name": "gameStatus",
      "outputs": [
        {
          "internalType": "enum IJammy.GameStatus",
          "name": "",
          "type": "uint8"
        }
      ],
      "stateMutability": "view",
      "type": "function"
    },
    {
      "inputs": [
        {
          "internalType": "uint256",
          "name": "",
          "type": "uint256"
        }
      ],
      "name": "games",
      "outputs": [
        {
          "internalType": "address",
          "name": "host",
          "type": "address"
        },
        {
          "internalType": "uint256",
          "name": "startDate",
          "type": "uint256"
        },
        {
          "internalType": "uint256",
          "name": "maxCardsPerPlayer",
          "type": "uint256"
        },
        {
          "internalType": "uint256",
          "name": "cardPrice",
          "type": "uint256"
        },
        {
          "internalType": "uint256",
          "name": "totalCardsSold",
          "type": "uint256"
        },
        {
          "internalType": "uint256",
          "name": "houseShare",
          "type": "uint256"
        },
        {
          "internalType": "uint256",
          "name": "seed",
          "type": "uint256"
        },
        {
          "internalType": "bool",
          "name": "cancelled",
          "type": "bool"
        },
        {
          "internalType": "uint256",
          "name": "totalPlayerCount",
          "type": "uint256"
        }
      ],
      "stateMutability": "view",
      "type": "function"
    },
    {
      "inputs": [
        {
          "internalType": "uint256",
          "name": "gameId",
          "type": "uint256"
        },
        {
          "internalType": "address",
          "name": "playerAddr",
          "type": "address"
        },
        {
          "internalType": "uint256",
          "name": "prizeIndex",
          "type": "uint256"
        }
      ],
      "name": "getGameInfo",
      "outputs": [
        {
          "components": [
            {
              "internalType": "uint256",
              "name": "availableNumbersLength",
              "type": "uint256"
            },
            {
              "internalType": "uint256",
              "name": "gamePrizesLength",
              "type": "uint256"
            },
            {
              "internalType": "uint256",
              "name": "prizeWinnersLength",
              "type": "uint256"
            },
            {
              "internalType": "uint256",
              "name": "numbersLength",
              "type": "uint256"
            },
            {
              "internalType": "uint256",
              "name": "cardsLength",
              "type": "uint256"
            },
            {
              "internalType": "uint256",
              "name": "playerCardsLength",
              "type": "uint256"
            }
          ],
          "internalType": "struct IJammy.GetInfo",
          "name": "info",
          "type": "tuple"
        }
      ],
      "stateMutability": "view",
      "type": "function"
    },
    {
      "inputs": [
        {
          "internalType": "address",
          "name": "",
          "type": "address"
        }
      ],
      "name": "hosts",
      "outputs": [
        {
          "internalType": "bool",
          "name": "",
          "type": "bool"
        }
      ],
      "stateMutability": "view",
      "type": "function"
    },
    {
      "inputs": [
        {
          "internalType": "uint256",
          "name": "gameId",
          "type": "uint256"
        },
        {
          "internalType": "uint256",
          "name": "cardsCount",
          "type": "uint256"
        }
      ],
      "name": "joinGame",
      "outputs": [],
      "stateMutability": "payable",
      "type": "function"
    },
    {
      "inputs": [],
      "name": "keyhash",
      "outputs": [
        {
          "internalType": "bytes32",
          "name": "",
          "type": "bytes32"
        }
      ],
      "stateMutability": "view",
      "type": "function"
    },
    {
      "inputs": [
        {
          "internalType": "uint256",
          "name": "",
          "type": "uint256"
        },
        {
          "internalType": "uint256",
          "name": "",
          "type": "uint256"
        }
      ],
      "name": "numbers",
      "outputs": [
        {
          "internalType": "uint8",
          "name": "",
          "type": "uint8"
        }
      ],
      "stateMutability": "view",
      "type": "function"
    },
    {
      "inputs": [],
      "name": "owner",
      "outputs": [
        {
          "internalType": "address",
          "name": "",
          "type": "address"
        }
      ],
      "stateMutability": "view",
      "type": "function"
    },
    {
      "inputs": [],
      "name": "pendingFunds",
      "outputs": [
        {
          "internalType": "uint256",
          "name": "",
          "type": "uint256"
        }
      ],
      "stateMutability": "view",
      "type": "function"
    },
    {
      "inputs": [
        {
          "internalType": "uint256",
          "name": "",
          "type": "uint256"
        },
        {
          "internalType": "address",
          "name": "",
          "type": "address"
        },
        {
          "internalType": "uint256",
          "name": "",
          "type": "uint256"
        }
      ],
      "name": "playerCards",
      "outputs": [
        {
          "internalType": "uint256",
          "name": "",
          "type": "uint256"
        }
      ],
      "stateMutability": "view",
      "type": "function"
    },
    {
      "inputs": [
        {
          "internalType": "uint256",
          "name": "",
          "type": "uint256"
        },
        {
          "internalType": "uint256",
          "name": "",
          "type": "uint256"
        },
        {
          "internalType": "uint256",
          "name": "",
          "type": "uint256"
        }
      ],
      "name": "prizeWinners",
      "outputs": [
        {
          "internalType": "address",
          "name": "",
          "type": "address"
        }
      ],
      "stateMutability": "view",
      "type": "function"
    },
    {
      "inputs": [
        {
          "internalType": "uint256",
          "name": "",
          "type": "uint256"
        }
      ],
      "name": "prizesClaimed",
      "outputs": [
        {
          "internalType": "bool",
          "name": "",
          "type": "bool"
        }
      ],
      "stateMutability": "view",
      "type": "function"
    },
    {
      "inputs": [
        {
          "internalType": "uint256",
          "name": "",
          "type": "uint256"
        }
      ],
      "name": "randomRequests",
      "outputs": [
        {
          "internalType": "uint256",
          "name": "gameId",
          "type": "uint256"
        },
        {
          "internalType": "address",
          "name": "player",
          "type": "address"
        },
        {
          "internalType": "enum IJammy.RandomRequestType",
          "name": "requestType",
          "type": "uint8"
        }
      ],
      "stateMutability": "view",
      "type": "function"
    },
    {
      "inputs": [
        {
          "internalType": "uint256",
          "name": "requestId",
          "type": "uint256"
        },
        {
          "internalType": "uint256[]",
          "name": "randomWords",
          "type": "uint256[]"
        }
      ],
      "name": "rawFulfillRandomWords",
      "outputs": [],
      "stateMutability": "nonpayable",
      "type": "function"
    },
    {
      "inputs": [
        {
          "internalType": "uint256",
          "name": "gameId",
          "type": "uint256"
        },
        {
          "internalType": "uint256",
          "name": "playerCardIndex",
          "type": "uint256"
        }
      ],
      "name": "redrawCard",
      "outputs": [],
      "stateMutability": "payable",
      "type": "function"
    },
    {
      "inputs": [
        {
          "internalType": "uint256",
          "name": "",
          "type": "uint256"
        },
        {
          "internalType": "address",
          "name": "",
          "type": "address"
        }
      ],
      "name": "refunds",
      "outputs": [
        {
          "internalType": "bool",
          "name": "",
          "type": "bool"
        }
      ],
      "stateMutability": "view",
      "type": "function"
    },
    {
      "inputs": [
        {
          "internalType": "uint256",
          "name": "gameId",
          "type": "uint256"
        }
      ],
      "name": "revealNumber",
      "outputs": [
        {
          "internalType": "uint8",
          "name": "revealedNumber",
          "type": "uint8"
        }
      ],
      "stateMutability": "nonpayable",
      "type": "function"
    },
    {
      "inputs": [
        {
          "internalType": "uint256",
          "name": "",
          "type": "uint256"
        },
        {
          "internalType": "uint256",
          "name": "",
          "type": "uint256"
        }
      ],
      "name": "revealedCards",
      "outputs": [
        {
          "internalType": "bool",
          "name": "",
          "type": "bool"
        }
      ],
      "stateMutability": "view",
      "type": "function"
    },
    {
      "inputs": [],
      "name": "s_vrfCoordinator",
      "outputs": [
        {
          "internalType": "contract IVRFCoordinatorV2Plus",
          "name": "",
          "type": "address"
        }
      ],
      "stateMutability": "view",
      "type": "function"
    },
    {
      "inputs": [
        {
          "internalType": "address",
          "name": "addr",
          "type": "address"
        },
        {
          "internalType": "bool",
          "name": "state",
          "type": "bool"
        }
      ],
      "name": "setAdmin",
      "outputs": [],
      "stateMutability": "nonpayable",
      "type": "function"
    },
    {
      "inputs": [
        {
          "internalType": "address",
          "name": "_vrfCoordinator",
          "type": "address"
        }
      ],
      "name": "setCoordinator",
      "outputs": [],
      "stateMutability": "nonpayable",
      "type": "function"
    },
    {
      "inputs": [
        {
          "internalType": "address",
          "name": "addr",
          "type": "address"
        },
        {
          "internalType": "bool",
          "name": "state",
          "type": "bool"
        }
      ],
      "name": "setHost",
      "outputs": [],
      "stateMutability": "nonpayable",
      "type": "function"
    },
    {
      "inputs": [
        {
          "internalType": "uint256",
          "name": "gameId",
          "type": "uint256"
        }
      ],
      "name": "startGame",
      "outputs": [],
      "stateMutability": "nonpayable",
      "type": "function"
    },
    {
      "inputs": [],
      "name": "subscriptionId",
      "outputs": [
        {
          "internalType": "uint256",
          "name": "",
          "type": "uint256"
        }
      ],
      "stateMutability": "view",
      "type": "function"
    },
    {
      "inputs": [],
      "name": "team1Address",
      "outputs": [
        {
          "internalType": "address",
          "name": "",
          "type": "address"
        }
      ],
      "stateMutability": "view",
      "type": "function"
    },
    {
      "inputs": [],
      "name": "team1Shares",
      "outputs": [
        {
          "internalType": "uint256",
          "name": "",
          "type": "uint256"
        }
      ],
      "stateMutability": "view",
      "type": "function"
    },
    {
      "inputs": [],
      "name": "team2Address",
      "outputs": [
        {
          "internalType": "address",
          "name": "",
          "type": "address"
        }
      ],
      "stateMutability": "view",
      "type": "function"
    },
    {
      "inputs": [],
      "name": "team2Shares",
      "outputs": [
        {
          "internalType": "uint256",
          "name": "",
          "type": "uint256"
        }
      ],
      "stateMutability": "view",
      "type": "function"
    },
    {
      "inputs": [
        {
          "internalType": "address",
          "name": "to",
          "type": "address"
        }
      ],
      "name": "transferOwnership",
      "outputs": [],
      "stateMutability": "nonpayable",
      "type": "function"
    },
    {
      "inputs": [],
      "name": "vrfCoordinator",
      "outputs": [
        {
          "internalType": "address",
          "name": "",
          "type": "address"
        }
      ],
      "stateMutability": "view",
      "type": "function"
    },
    {
      "inputs": [
        {
          "internalType": "uint256",
          "name": "gameId",
          "type": "uint256"
        },
        {
          "internalType": "uint256",
          "name": "prizeIndex",
          "type": "uint256"
        },
        {
          "internalType": "uint256",
          "name": "playerCardIndex",
          "type": "uint256"
        }
      ],
      "name": "winPrize",
      "outputs": [],
      "stateMutability": "nonpayable",
      "type": "function"
    },
    {
      "inputs": [
        {
          "internalType": "uint256",
          "name": "amount",
          "type": "uint256"
        }
      ],
      "name": "withdraw",
      "outputs": [],
      "stateMutability": "nonpayable",
      "type": "function"
    }
  ],
  "bytecode": "0x6101a06040523480156200001257600080fd5b5060405162003fd038038062003fd08339810160408190526200003591620002ba565b8733806000816200008d5760405162461bcd60e51b815260206004820152601860248201527f43616e6e6f7420736574206f776e657220746f207a65726f000000000000000060448201526064015b60405180910390fd5b600080546001600160a01b0319166001600160a01b0384811691909117909155811615620000c057620000c081620001f2565b5050506001600160a01b038116620000eb5760405163d92e233d60e01b815260040160405180910390fd5b600280546001600160a01b0319166001600160a01b03929092169190911790556127106200011a848662000349565b1462000139576040516324e7af5b60e01b815260040160405180910390fd5b608084905260a08390526001600160a01b0380831660c05281811660e052336101805288166101005261012087905261014086905263ffffffff85166101605260015b604b8160ff1611620001e3576003805460018181018355600092909252602081047fc2575a0e9e593c00f959f8c92f12db2869c3395a3b0502d05e2516446f71f85b01805460ff808616601f9094166101000a93840293021916919091179055016200017c565b50505050505050505062000371565b336001600160a01b038216036200024c5760405162461bcd60e51b815260206004820152601760248201527f43616e6e6f74207472616e7366657220746f2073656c66000000000000000000604482015260640162000084565b600180546001600160a01b0319166001600160a01b0383811691821790925560008054604051929316917fed8889f560326eb138920d842192f0eb3dd22b4f139c87a2c57538e05bae12789190a350565b80516001600160a01b0381168114620002b557600080fd5b919050565b600080600080600080600080610100898b031215620002d857600080fd5b620002e3896200029d565b97506020890151965060408901519550606089015163ffffffff811681146200030b57600080fd5b60808a015160a08b0151919650945092506200032a60c08a016200029d565b91506200033a60e08a016200029d565b90509295985092959890939650565b808201808211156200036b57634e487b7160e01b600052601160045260246000fd5b92915050565b60805160a05160c05160e0516101005161012051610140516101605161018051613b936200043d60003960008181610a9d01528181610efc015261140b0152600081816104be0152612b6101526000818161034b0152612b300152600081816106dc0152612b0a015260006108e70152600081816108580152818161100601526122ce01526000818161061b01528181610fdc01526122a4015260008181610b1101528181610fa6015261225501526000818161080401528181610f6b015261221a0152613b936000f3fe6080604052600436106103345760003560e01c80638ea98117116101b0578063ca067ad0116100ec578063e5ed1d5911610095578063fe7d567d1161006f578063fe7d567d14610b93578063fea9b57214610bb3578063ff1f601014610bc8578063ff78b4ef14610be857600080fd5b8063e5ed1d5914610b33578063f2fde38b14610b53578063fa662a7314610b7357600080fd5b8063d7098154116100c6578063d709815414610abf578063dbde179514610adf578063e2a12cbb14610aff57600080fd5b8063ca067ad014610a13578063cc80dd0614610a6b578063d5f3948814610a8b57600080fd5b80639eccacf611610159578063b0f279c811610133578063b0f279c814610929578063b397a12614610964578063b60b9fcb146109d0578063b9ced5fe146109e357600080fd5b80639eccacf6146108b5578063a3e56fa8146108d5578063a9ef4a751461090957600080fd5b80639590ca6f1161018a5780639590ca6f14610826578063973ea9d51461084657806397509e471461087a57600080fd5b80638ea98117146107b257806392ca17e3146107d25780639427552b146107f257600080fd5b8063454cc4bc1161027f57806369ebe78e116102285780637c6bc9be116102025780637c6bc9be146107295780638da5cb5b1461073f5780638dc107681461075d5780638e6bb11b1461077d57600080fd5b806369ebe78e146106ca5780636c70f15e146106fe57806379ba50971461071457600080fd5b80634d07af46116102595780634d07af46146106755780635b7baf641461068a57806369958ab9146106aa57600080fd5b8063454cc4bc146105ce5780634811c070146106095780634b0bddd21461065557600080fd5b80632794a63d116102e1578063324acb90116102bb578063324acb901461054157806334239c9c14610561578063429b62e51461058e57600080fd5b80632794a63d146104f55780632e0be39a1461050b5780632e1a7d4d1461052157600080fd5b8063189b36b411610312578063189b36b41461045a5780631fe543e31461048c57806324f74697146104ac57600080fd5b806309c1ba2e14610339578063117a5b901461038057806317b2158914610445575b600080fd5b34801561034557600080fd5b5061036d7f000000000000000000000000000000000000000000000000000000000000000081565b6040519081526020015b60405180910390f35b34801561038c57600080fd5b506103f561039b36600461362f565b60086020819052600091825260409091208054600182015460028301546003840154600485015460058601546006870154600788015497909801546001600160a01b03909616979496939592949193909260ff9091169089565b604080516001600160a01b03909a168a5260208a0198909852968801959095526060870193909352608086019190915260a085015260c0840152151560e083015261010082015261012001610377565b610458610453366004613648565b610c18565b005b34801561046657600080fd5b5061047a610475366004613648565b610e59565b60405160ff9091168152602001610377565b34801561049857600080fd5b506104586104a73660046136b6565b610e9c565b3480156104b857600080fd5b506104e07f000000000000000000000000000000000000000000000000000000000000000081565b60405163ffffffff9091168152602001610377565b34801561050157600080fd5b5061036d611c2081565b34801561051757600080fd5b5061036d60075481565b34801561052d57600080fd5b5061045861053c36600461362f565b610ef1565b34801561054d57600080fd5b5061045861055c366004613702565b61102b565b34801561056d57600080fd5b5061058161057c36600461362f565b6112c8565b6040516103779190613744565b34801561059a57600080fd5b506105be6105a936600461377a565b60056020526000908152604090205460ff1681565b6040519015158152602001610377565b3480156105da57600080fd5b506105be6105e9366004613795565b601160209081526000928352604080842090915290825290205460ff1681565b34801561061557600080fd5b5061063d7f000000000000000000000000000000000000000000000000000000000000000081565b6040516001600160a01b039091168152602001610377565b34801561066157600080fd5b506104586106703660046137c1565b611400565b34801561068157600080fd5b5061036d600581565b34801561069657600080fd5b506104586106a536600461362f565b6114ac565b3480156106b657600080fd5b506104586106c536600461362f565b6115fa565b3480156106d657600080fd5b5061036d7f000000000000000000000000000000000000000000000000000000000000000081565b34801561070a57600080fd5b5061036d61271081565b34801561072057600080fd5b50610458611706565b34801561073557600080fd5b5061036d60125481565b34801561074b57600080fd5b506000546001600160a01b031661063d565b34801561076957600080fd5b5061036d61077836600461362f565b6117b7565b34801561078957600080fd5b5061079d610798366004613648565b6117d8565b60408051928352901515602083015201610377565b3480156107be57600080fd5b506104586107cd36600461377a565b611817565b3480156107de57600080fd5b506104586107ed3660046137c1565b611909565b3480156107fe57600080fd5b5061036d7f000000000000000000000000000000000000000000000000000000000000000081565b34801561083257600080fd5b506104586108413660046137fd565b611994565b34801561085257600080fd5b5061063d7f000000000000000000000000000000000000000000000000000000000000000081565b34801561088657600080fd5b506105be610895366004613648565b600e60209081526000928352604080842090915290825290205460ff1681565b3480156108c157600080fd5b5060025461063d906001600160a01b031681565b3480156108e157600080fd5b5061063d7f000000000000000000000000000000000000000000000000000000000000000081565b34801561091557600080fd5b50610458610924366004613869565b611a87565b34801561093557600080fd5b506105be6109443660046138d3565b600c60209081526000928352604080842090915290825290205460ff1681565b34801561097057600080fd5b5061098461097f3660046138fe565b611da5565b6040516103779190600060c082019050825182526020830151602083015260408301516040830152606083015160608301526080830151608083015260a083015160a083015292915050565b6104586109de366004613648565b611e4f565b3480156109ef57600080fd5b506105be6109fe36600461377a565b60066020526000908152604090205460ff1681565b348015610a1f57600080fd5b50610a5c610a2e36600461362f565b600460205260009081526040902080546001909101546001600160a01b03811690600160a01b900460ff1683565b60405161037793929190613933565b348015610a7757600080fd5b5061063d610a86366004613702565b6120aa565b348015610a9757600080fd5b5061063d7f000000000000000000000000000000000000000000000000000000000000000081565b348015610acb57600080fd5b50610458610ada36600461362f565b6120ef565b348015610aeb57600080fd5b5061047a610afa36600461362f565b61252b565b348015610b0b57600080fd5b5061036d7f000000000000000000000000000000000000000000000000000000000000000081565b348015610b3f57600080fd5b50610458610b4e36600461362f565b61255f565b348015610b5f57600080fd5b50610458610b6e36600461377a565b612697565b348015610b7f57600080fd5b50610458610b8e366004613967565b6126ab565b348015610b9f57600080fd5b5061047a610bae36600461362f565b61275e565b348015610bbf57600080fd5b5061036d604b81565b348015610bd457600080fd5b5061036d610be33660046138fe565b612abc565b348015610bf457600080fd5b506105be610c0336600461362f565b60106020526000908152604090205460ff1681565b81600180610c25836112c8565b6006811115610c3657610c3661372e565b14610c545760405163263ab1ff60e11b815260040160405180910390fd5b6000848152600f602090815260408083203384529091529020548310610c8d57604051630479201160e41b815260040160405180910390fd5b6000848152600f602090815260408083203384529091528120805485908110610cb857610cb86139a9565b906000526020600020015490506002811015610ce7576040516333026e1560e21b815260040160405180910390fd5b6000858152600e602090815260408083208484528252808320805460ff1916905587835260088083529281902081516101208101835281546001600160a01b031681526001820154938101939093526002808201549284019290925260038101546060840181905260048201546080850152600582015460a0850152600682015460c0850152600782015460ff16151560e08501529301546101008301529091610d9191906139eb565b3414610db05760405163788a686f60e01b815260040160405180910390fd5b3460126000828254610dc291906139ff565b90915550506000868152600f60209081526040808320338452909152902080546001919087908110610df657610df66139a9565b600091825260209091200155610e10600187336002612afa565b50604080518781523360208201529081018690527f930d62ec39f144c870a941ea5de98eb4242d21eb495d9ffe875009ad5e4215339060600160405180910390a1505050505050565b600b6020528160005260406000208181548110610e7557600080fd5b9060005260206000209060209182820401919006915091509054906101000a900460ff1681565b6002546001600160a01b03163314610ee15760025460405163073e64fd60e21b81523360048201526001600160a01b0390911660248201526044015b60405180910390fd5b610eec838383612d27565b505050565b336001600160a01b037f00000000000000000000000000000000000000000000000000000000000000001614610f39576040516282b42960e81b815260040160405180910390fd5b601254811115610f5c576040516349986e7360e01b815260040160405180910390fd5b60006012819055612710610f907f000000000000000000000000000000000000000000000000000000000000000084613a12565b610f9a91906139eb565b90506000612710610fcb7f000000000000000000000000000000000000000000000000000000000000000085613a12565b610fd591906139eb565b90506110017f000000000000000000000000000000000000000000000000000000000000000083613157565b610eec7f000000000000000000000000000000000000000000000000000000000000000082613157565b82600380611038836112c8565b60068111156110495761104961372e565b146110675760405163263ab1ff60e11b815260040160405180910390fd5b6000858152600960205260408120805486908110611087576110876139a9565b600091825260209182902060408051808201909152600290920201805482526001015460ff161580159282019290925291506110d65760405163c079469760e01b815260040160405180910390fd5b6000868152600a6020908152604080832088845282528083208054825181850281018501909352808352919290919083018282801561113e57602002820191906000526020600020905b81546001600160a01b03168152600190910190602001808311611120575b5050505050905060005b81518110156111a457818181518110611163576111636139a9565b60200260200101516001600160a01b0316336001600160a01b03160361119c57604051637d7eaa2d60e11b815260040160405180910390fd5b600101611148565b506000878152600f6020908152604080832033845290915290205485106111de57604051630832ba8b60e41b815260040160405180910390fd5b6000878152600f6020908152604080832033845290915281208054611220918a918990811061120f5761120f6139a9565b9060005260206000200154896131e5565b9050806112405760405163adfce5a360e01b815260040160405180910390fd5b6000888152600a602090815260408083208a8452825280832080546001810182559084529282902090920180546001600160a01b0319163390811790915582518b81529182018a9052918101919091527f356422e982ec6a4ce05173e7e9afd2a3ca3a2d5a81c14aea896fa79947981280906060015b60405180910390a15050505050505050565b600081815260086020818152604080842081516101208101835281546001600160a01b0316815260018201549381018490526002820154928101929092526003810154606083015260048101546080830152600581015460a0830152600681015460c0830152600781015460ff16151560e08301529092015461010083015282036113565750600092915050565b60008381526009602052604081208054909190611375576113756139a9565b600091825260209091206001600290920201015460ff161561139a5750600492915050565b8060e00151156113ad5750600692915050565b80602001514210156113c25750600192915050565b611c2081602001516113d491906139ff565b4210156113f75760c0810151156113ee5750600392915050565b50600292915050565b50600592915050565b336001600160a01b037f00000000000000000000000000000000000000000000000000000000000000001614611448576040516282b42960e81b815260040160405180910390fd5b6001600160a01b038216600081815260056020908152604091829020805460ff19168515159081179091558251938452908301527fe68d2c359a771606c400cf8b87000cf5864010363d6a736e98f5047b7bbe18e991015b60405180910390a15050565b60006114b7826112c8565b905060068160068111156114cd576114cd61372e565b141580156114ed575060058160068111156114ea576114ea61372e565b14155b1561150b5760405163263ab1ff60e11b815260040160405180910390fd5b600082815260086020908152604080832060030154600f835281842033855290925282205461153a9190613a12565b90508060000361155d5760405163f76aef6560e01b815260040160405180910390fd5b600083815260116020908152604080832033845290915290205460ff16156115985760405163542f378d60e11b815260040160405180910390fd5b60008381526011602090815260408083203380855290835292819020805460ff191660011790555183815285917ffbeaa807aad4fcff31eff41f17142e6dcd1babf57c4730e3a4c706ac608cc057910160405180910390a3610eec3382613157565b33600090815260066020526040902054819060ff1661162b576040516282b42960e81b815260040160405180910390fd5b801580159061165157506000818152600860205260409020546001600160a01b03163314155b1561166e576040516282b42960e81b815260040160405180910390fd5b8160018061167b836112c8565b600681111561168c5761168c61372e565b146116aa5760405163263ab1ff60e11b815260040160405180910390fd5b60008481526008602052604090819020600701805460ff19166001179055517f681705fdbd93dba3b679fd712577e9a86d57c5551c520f8c74857deb57f9623f906116f89086815260200190565b60405180910390a150505050565b6001546001600160a01b031633146117605760405162461bcd60e51b815260206004820152601660248201527f4d7573742062652070726f706f736564206f776e6572000000000000000000006044820152606401610ed8565b60008054336001600160a01b0319808316821784556001805490911690556040516001600160a01b0390921692909183917f8be0079c531659141344cd1fd0a4f28419497f9722a3daafe3b4186f6b6457e091a350565b600d81815481106117c757600080fd5b600091825260209091200154905081565b600960205281600052604060002081815481106117f457600080fd5b60009182526020909120600290910201805460019091015490925060ff16905082565b6000546001600160a01b0316331480159061183d57506002546001600160a01b03163314155b1561188e57336118556000546001600160a01b031690565b60025460405163061db9c160e01b81526001600160a01b0393841660048201529183166024830152919091166044820152606401610ed8565b6001600160a01b0381166118b55760405163d92e233d60e01b815260040160405180910390fd5b600280546001600160a01b0319166001600160a01b0383169081179091556040519081527fd1a6a14209a385a964d036e404cb5cfb71f4000cdb03c9366292430787261be69060200160405180910390a150565b3360009081526005602052604090205460ff16611938576040516282b42960e81b815260040160405180910390fd5b6001600160a01b038216600081815260066020908152604091829020805460ff19168515159081179091558251938452908301527ff4e55a552c0dd38d43f1f1f2aa7ba6e10e5b397505168dead0dfe7a141052ba191016114a0565b3360009081526005602052604090205460ff166119c3576040516282b42960e81b815260040160405180910390fd5b8281146119e3576040516324e7af5b60e01b815260040160405180910390fd5b6000805b84811015611a4b57838383818110611a0157611a016139a9565b90506020020135600d878784818110611a1c57611a1c6139a9565b9050602002013581548110611a3357611a336139a9565b600091825260209091200155600191820191016119e7565b506040518281527f909437423316f5e34040ca432ee29c5f77e603b8509d9eb85cc740cc1edf150b906020015b60405180910390a15050505050565b3360009081526006602052604081205460ff16611ab6576040516282b42960e81b815260040160405180910390fd5b8015801590611adc57506000818152600860205260409020546001600160a01b03163314155b15611af9576040516282b42960e81b815260040160405180910390fd5b42871015611b1a576040516324e7af5b60e01b815260040160405180910390fd5b60058214611b3b576040516324e7af5b60e01b815260040160405180910390fd5b85600003611b5c576040516324e7af5b60e01b815260040160405180910390fd5b6007805460010190558360005b6005811015611c1457848482818110611b8457611b846139a9565b9050602002013582611b9691906139ff565b6040805180820190915260008082526020820152909250858583818110611bbf57611bbf6139a9565b60209081029290920135835250600754600090815260098252604081208054600180820183559183529183902084516002909302019182559290910151908201805460ff191691151591909117905501611b69565b506127108114611c37576040516324e7af5b60e01b815260040160405180910390fd5b611c9160405180610120016040528060006001600160a01b03168152602001600081526020016000815260200160008152602001600081526020016000815260200160008152602001600015158152602001600081525090565b33815260208082018a815260408084018b8152606085018b815260a086018b815260078054600090815260088089528682208a5181546001600160a01b0319166001600160a01b0390911617815597516001890155945160028801559251600380880191909155608089015160048801559151600587015560c0880151600687015560e0880151868201805460ff1916911515919091179055610100880151959093019490945590548152600b9093529091208154611d5092906135bc565b5080600001516001600160a01b03167f306841c3fce8498c2d9b7194b8da4c04d03847394e237b625ce6d029b107f077600754604051611d9291815260200190565b60405180910390a2505050505050505050565b611dde6040518060c001604052806000815260200160008152602001600081526020016000815260200160008152602001600081525090565b600354815260008481526009602090815260408083205482850152868352600a82528083209483529381528382205484840152858252600b8152838220546060840152600d546080840152948152600f85528281206001600160a01b0390941681529290935290205460a082015290565b81600180611e5c836112c8565b6006811115611e6d57611e6d61372e565b14611e8b5760405163263ab1ff60e11b815260040160405180910390fd5b60008481526008602081815260409283902083516101208101855281546001600160a01b0316815260018201549281019290925260028101549382018490526003810154606083015260048101546080830152600581015460a0830152600681015460c0830152600781015460ff16151560e08301529091015461010082015290841180611f17575083155b15611f35576040516324e7af5b60e01b815260040160405180910390fd5b838160600151611f459190613a12565b3414611f645760405163788a686f60e01b815260040160405180910390fd5b6000858152600f6020908152604080832033845290915290205415611f9b57604051621d934160e11b815260040160405180910390fd5b600d54611faa906002906139eb565b848260800151611fba91906139ff565b1115611fd95760405163ac7d874b60e01b815260040160405180910390fd5b60008581526008602052604081206004018054869290611ffa9084906139ff565b9091555050600085815260086020819052604082200180549161201c83613a29565b919050555060005b8481101561205e576000868152600f6020908152604080832033845282528220805460018181018355918452919092200181905501612024565b5061206c8486336001612afa565b50604080518681523360208201529081018590527f03dfbe1fcb4e2d61f3b4a0c93d8f814c92250618b3387f396cc9fc9fafe2c20390606001611a78565b600a60205282600052604060002060205281600052604060002081815481106120d257600080fd5b6000918252602090912001546001600160a01b0316925083915050565b806004806120fc836112c8565b600681111561210d5761210d61372e565b1461212b5760405163263ab1ff60e11b815260040160405180910390fd5b60008381526010602052604090205460ff161561215b5760405163611ab18960e11b815260040160405180910390fd5b600083815260086020818152604080842081516101208101835281546001600160a01b03168152600182015493810193909352600281015491830191909152600381015460608301819052600482015460808401819052600583015460a0850152600683015460c0850152600783015460ff16151560e085015291909301546101008301529092916121ed9190613a12565b905060006127108360a00151836122049190613a12565b61220e91906139eb565b9050600061271061223f7f000000000000000000000000000000000000000000000000000000000000000084613a12565b61224991906139eb565b9050600061271061227a7f000000000000000000000000000000000000000000000000000000000000000085613a12565b61228491906139eb565b6000898152601060205260409020805460ff1916600117905590506122c97f000000000000000000000000000000000000000000000000000000000000000083613157565b6122f37f000000000000000000000000000000000000000000000000000000000000000082613157565b60005b60058110156124f4576000898152600a6020908152604080832084845282528083208054825181850281018501909352808352919290919083018282801561236757602002820191906000526020600020905b81546001600160a01b03168152600190910190602001808311612349575b505050505090506000600960008c81526020019081526020016000208381548110612394576123946139a9565b6000918252602080832060408051808201909152600290930201805480845260019091015460ff16151591830191909152909250612710906123d6908a613a12565b6123e091906139eb565b905060008351826123f191906139eb565b905060005b84518110156124e3576000858281518110612413576124136139a9565b60200260200101516001600160a01b031683600067ffffffffffffffff81111561243f5761243f613a42565b6040519080825280601f01601f191660200182016040528015612469576020820181803683370190505b506040516124779190613a7c565b60006040518083038185875af1925050503d80600081146124b4576040519150601f19603f3d011682016040523d82523d6000602084013e6124b9565b606091505b50509050806124da5782601260008282546124d491906139ff565b90915550505b506001016123f6565b5050600190930192506122f6915050565b5060408051898152602081018690527f390a412d60a41cb44637e108b2d7355311c3fb9743aef221b4958b29c5b590a891016112b6565b6003818154811061253b57600080fd5b9060005260206000209060209182820401919006915054906101000a900460ff1681565b33600090815260066020526040902054819060ff16612590576040516282b42960e81b815260040160405180910390fd5b80158015906125b657506000818152600860205260409020546001600160a01b03163314155b156125d3576040516282b42960e81b815260040160405180910390fd5b816002806125e0836112c8565b60068111156125f1576125f161372e565b1461260f5760405163263ab1ff60e11b815260040160405180910390fd5b6000848152600860205260409020600601541561263f5760405163ba26162b60e01b815260040160405180910390fd5b61264e60018560006003612afa565b50600084815260086020526040908190206001600690910155517f50ad08f58a27f2851d7e3a1b3a6a46b290f2ce677e99642d30ff639721e77790906116f89086815260200190565b61269f6132b3565b6126a88161330f565b50565b3360009081526005602052604090205460ff166126da576040516282b42960e81b815260040160405180910390fd5b60005b8181101561272357600d8383838181106126f9576126f96139a9565b835460018082018655600095865260209586902092909502939093013592019190915550016126dd565b50600d546040805183815260208101929092527f177b4d4352d7390f8b4072e4704932d89b61ed3feb0e68be4b2e329a05c0e38991016114a0565b33600090815260066020526040812054829060ff1661278f576040516282b42960e81b815260040160405180910390fd5b80158015906127b557506000818152600860205260409020546001600160a01b03163314155b156127d2576040516282b42960e81b815260040160405180910390fd5b826003806127df836112c8565b60068111156127f0576127f061372e565b1461280e5760405163263ab1ff60e11b815260040160405180910390fd5b600085815260086020526040902060060154600281101561284257604051630be4981d60e11b815260040160405180910390fd5b600061284d876133b8565b90508015612892576040518781527e66784f5eb6c952749f91053c22ea083dd3cb766913c0733aa779dcc724f60e9060200160405180910390a1600095505050612ab4565b6000878152600b60205260408120546128ac90604b613a98565b6000898152600b6020526040812054919250906128c983866139ff565b6040516020016128db91815260200190565b6040516020818303038152906040528051906020012060001c6128fe9190613aab565b60008a8152600b6020526040902080549192509082908110612922576129226139a9565b6000918252602080832081830401548c8452600c8252604080852060ff601f9095166101000a909204841680865291909252922054919950161561296857612968613abf565b6000898152600b60205260409020805461298490600190613a98565b81548110612994576129946139a9565b90600052602060002090602091828204019190069054906101000a900460ff16600b60008b815260200190815260200160002082815481106129d8576129d86139a9565b90600052602060002090602091828204019190066101000a81548160ff021916908360ff160217905550600b60008a8152602001908152602001600020805480612a2457612a24613ad5565b6000828152602080822060001993909301818104909301805460ff601f86166101000a810219909116909155929093558b8152600c83526040808220928c1680835292845290819020805460ff1916600117905580518c8152928301919091527fafc498d7d3d2c521010ee0e69decf620932eb8965a8620d33f15964611b501bf910160405180910390a1505050505b505050919050565b600f6020528260005260406000206020528160005260406000208181548110612ae457600080fd5b9060005260206000200160009250925050505481565b6000806040518060c001604052807f000000000000000000000000000000000000000000000000000000000000000081526020017f00000000000000000000000000000000000000000000000000000000000000008152602001600361ffff1681526020017f000000000000000000000000000000000000000000000000000000000000000063ffffffff1681526020018763ffffffff168152602001612bb1604051806020016040528060001515815250613487565b9052600254604051634d8e1c2f60e11b81529192506001600160a01b031690639b1c385e90612be4908490600401613aeb565b6020604051808303816000875af1158015612c03573d6000803e3d6000fd5b505050506040513d601f19601f82011682018060405250810190612c279190613b6d565b91506040518060600160405280868152602001856001600160a01b03168152602001846003811115612c5b57612c5b61372e565b905260008381526004602090815260409182902083518155908301516001820180546001600160a01b039092166001600160a01b031983168117825593850151929390917fffffffffffffffffffffff0000000000000000000000000000000000000000001617600160a01b836003811115612cd957612cd961372e565b0217905550506040805184815263ffffffff891660208201527fcc58b13ad3eab50626c6a6300b1d139cd6ebb1688a7cced9461c2f7e762665ee92500160405180910390a150949350505050565b600083815260046020908152604080832081516060810183528154815260018201546001600160a01b03811694820194909452929091830190600160a01b900460ff166003811115612d7b57612d7b61372e565b6003811115612d8c57612d8c61372e565b9052509050600081604001516003811115612da957612da961372e565b03612dca57604051630cbe368560e21b815260048101859052602401610ed8565b600181604001516003811115612de257612de261372e565b148015612e31575080516000908152600f60209081526040808320828501516001600160a01b0316845290915281208054909190612e2257612e226139a9565b90600052602060002001546001145b15612ee65760005b82811015612ee0576000848483818110612e5557612e556139a9565b9050602002013590506000612e6e846000015183613525565b84516000908152600e602090815260408083208484528252808320805460ff1916600117905587518352600f8252808320828901516001600160a01b0316845290915290208054919250829185908110612eca57612eca6139a9565b6000918252602090912001555050600101612e39565b506130e9565b600281604001516003811115612efe57612efe61372e565b036130565760001960005b82516000908152600f60209081526040808320828701516001600160a01b03168452909152902054811015612f935782516000908152600f60209081526040808320828701516001600160a01b031684529091529020805482908110612f7157612f716139a9565b9060005260206000200154600103612f8b57809150612f93565b600101612f09565b506000198103612fb657604051630479201160e41b815260040160405180910390fd5b600084846000818110612fcb57612fcb6139a9565b9050602002013590506000612fe4846000015183613525565b84516000908152600e602090815260408083208484528252808320805460ff1916600117905587518352600f8252808320828901516001600160a01b0316845290915290208054919250829185908110613040576130406139a9565b90600052602060002001819055505050506130e9565b60038160400151600381111561306e5761306e61372e565b14801561308e575080516000908152600860205260409020600601546001145b156130d057828260008181106130a6576130a66139a9565b905060200201356008600083600001518152602001908152602001600020600601819055506130e9565b604051636d08029760e01b815260040160405180910390fd5b806040015160038111156130ff576130ff61372e565b602082810151604080518881526001600160a01b03909216928201929092529081018490527f3fd696057e834a199da5561585aa71f4aca3ffdf15ccd268fb3b41fd86c1326a9060600160405180910390a250505050565b604080516000808252602082019092526001600160a01b0384169083906040516131819190613a7c565b60006040518083038185875af1925050503d80600081146131be576040519150601f19603f3d011682016040523d82523d6000602084013e6131c3565b606091505b5050905080610eec576040516312171d8360e31b815260040160405180910390fd5b6000826001036131f7575060006132ac565b6000613204836005613a98565b90506000805b60058110156132a4576000805b6005811015613286576000898152600c6020908152604080832060ff808d168086529190935292205460089a909a1c991680613254575060ff8116155b15613267578261326381613a29565b9350505b8260050361327d578461327981613a29565b9550505b50600101613217565b5083831061329b5760019450505050506132ac565b5060010161320a565b506000925050505b9392505050565b6000546001600160a01b0316331461330d5760405162461bcd60e51b815260206004820152601660248201527f4f6e6c792063616c6c61626c65206279206f776e6572000000000000000000006044820152606401610ed8565b565b336001600160a01b038216036133675760405162461bcd60e51b815260206004820152601760248201527f43616e6e6f74207472616e7366657220746f2073656c660000000000000000006044820152606401610ed8565b600180546001600160a01b0319166001600160a01b0383811691821790925560008054604051929316917fed8889f560326eb138920d842192f0eb3dd22b4f139c87a2c57538e05bae12789190a350565b6000805b60058110156134815760008381526009602052604090208054829081106133e5576133e56139a9565b600091825260209091206001600290920201015460ff1615801561342157506000838152600a6020908152604080832084845290915290205415155b156134795760008381526009602052604090208054600191908390811061344a5761344a6139a9565b60009182526020822060029190910201600101805460ff19169215159290921790915581900361347957600191505b6001016133bc565b50919050565b60607f92fd13387c7fe7befbc38d303d6468778fb9731bc4583f17d92989c6fcfdeaaa826040516024016134c091511515815260200190565b60408051601f198184030181529190526020810180517bffffffffffffffffffffffffffffffffffffffffffffffffffffffff167fffffffff000000000000000000000000000000000000000000000000000000009093169290921790915292915050565b600d80546000919061353b9061ffff8516613aab565b8154811061354b5761354b6139a9565b906000526020600020015490505b6000838152600e6020908152604080832084845290915290205460ff16156135b657600d805460109390931c926135949061ffff8516613aab565b815481106135a4576135a46139a9565b90600052602060002001549050613559565b92915050565b82805482825590600052602060002090601f0160209004810192821561360a57600052602060002091601f016020900482015b8281111561360a5782548255916001019190600101906135ef565b5061361692915061361a565b5090565b5b80821115613616576000815560010161361b565b60006020828403121561364157600080fd5b5035919050565b6000806040838503121561365b57600080fd5b50508035926020909101359150565b60008083601f84011261367c57600080fd5b50813567ffffffffffffffff81111561369457600080fd5b6020830191508360208260051b85010111156136af57600080fd5b9250929050565b6000806000604084860312156136cb57600080fd5b83359250602084013567ffffffffffffffff8111156136e957600080fd5b6136f58682870161366a565b9497909650939450505050565b60008060006060848603121561371757600080fd5b505081359360208301359350604090920135919050565b634e487b7160e01b600052602160045260246000fd5b60208101600783106137585761375861372e565b91905290565b80356001600160a01b038116811461377557600080fd5b919050565b60006020828403121561378c57600080fd5b6132ac8261375e565b600080604083850312156137a857600080fd5b823591506137b86020840161375e565b90509250929050565b600080604083850312156137d457600080fd5b6137dd8361375e565b9150602083013580151581146137f257600080fd5b809150509250929050565b6000806000806040858703121561381357600080fd5b843567ffffffffffffffff8082111561382b57600080fd5b6138378883890161366a565b9096509450602087013591508082111561385057600080fd5b5061385d8782880161366a565b95989497509550505050565b60008060008060008060a0878903121561388257600080fd5b86359550602087013594506040870135935060608701359250608087013567ffffffffffffffff8111156138b557600080fd5b6138c189828a0161366a565b979a9699509497509295939492505050565b600080604083850312156138e657600080fd5b82359150602083013560ff811681146137f257600080fd5b60008060006060848603121561391357600080fd5b833592506139236020850161375e565b9150604084013590509250925092565b8381526001600160a01b038316602082015260608101600483106139595761395961372e565b826040830152949350505050565b6000806020838503121561397a57600080fd5b823567ffffffffffffffff81111561399157600080fd5b61399d8582860161366a565b90969095509350505050565b634e487b7160e01b600052603260045260246000fd5b634e487b7160e01b600052601260045260246000fd5b634e487b7160e01b600052601160045260246000fd5b6000826139fa576139fa6139bf565b500490565b808201808211156135b6576135b66139d5565b80820281158282048414176135b6576135b66139d5565b600060018201613a3b57613a3b6139d5565b5060010190565b634e487b7160e01b600052604160045260246000fd5b60005b83811015613a73578181015183820152602001613a5b565b50506000910152565b60008251613a8e818460208701613a58565b9190910192915050565b818103818111156135b6576135b66139d5565b600082613aba57613aba6139bf565b500690565b634e487b7160e01b600052600160045260246000fd5b634e487b7160e01b600052603160045260246000fd5b60208152815160208201526020820151604082015261ffff60408301511660608201526000606083015163ffffffff80821660808501528060808601511660a0850152505060a083015160c08084015280518060e0850152610100613b568282870160208601613a58565b80601f19601f840116860101935050505092915050565b600060208284031215613b7f57600080fd5b505191905056fea164736f6c6343000813000a",
  "linkReferences": {},
  "deployedLinkReferences": {}
}